:100000000C9434000C94A0010C9451000C945100F9
:100010000C9451000C9451000C9451000C9451001C
:100020000C9451000C9451000C9451000C9451000C
:100030000C9451000C9451000C9451000C945100FC
:100040000C9453000C9451000C9451000C945100EA
:100050000C9451000C9451000C9451000C945100DC
:100060000C9451000C94510011241FBECFEFD4E02A
:10007000DEBFCDBF11E0A0E0B1E0E4EBFAE102C0E9
:1000800005900D92A038B107D9F711E0A0E8B1E0D2
:1000900001C01D92AD3AB107E1F70E944F030C94E5
:1000A000580D0C9400001F920F920FB60F9211245E
:1000B0008F939F93AF93BF93809185019091860119
:1000C000A0918701B09188010196A11DB11D809377
:1000D000850190938601A0938701B0938801809158
:1000E000890190918A01A0918B01B0918C010196B8
:1000F000A11DB11D8093890190938A01A0938B016A
:10010000B0938C0180918D0190918E01A0918F010F
:10011000B09190010196A11DB11D80938D01909326
:100120008E01A0938F01B0939001809191019091E5
:100130009201A0919301B09194010196A11DB11D6E
:100140008093910190939201A0939301B0939401B5
:100150008091950190919601A0919701B09198019D
:100160000196A11DB11D8093950190939601A093D6
:100170009701B09398018091990190919A01A09173
:100180009B01B0919C010196A11DB11D8093990125
:1001900090939A01A0939B01B0939C0180919D0143
:1001A00090919E01A0919F01B091A0010196A11D87
:1001B000B11D80939D0190939E01A0939F01B093E8
:1001C000A0018091A1019091A201A091A301B09101
:1001D000A4010196A11DB11D8093A1019093A201DC
:1001E000A093A301B093A4018091A5019091A601D1
:1001F000A091A701B091A8010196A11DB11D809306
:10020000A5019093A601A093A701B093A8018091A6
:10021000A9019091AA01A091AB01B091AC01019606
:10022000A11DB11D8093A9019093AA01A093AB01D8
:10023000B093AC0116BCBF91AF919F918F910F907D
:100240000FBE0F901F901895E82FF894F0E0EE0F76
:10025000FF1FEE0FFF1FEB57FE4F208131814281C0
:1002600053817894B901CA010895E82FF894F0E019
:10027000EE0FFF1FEE0FFF1FEB57FE4F1082118294
:10028000128213827894089583E084BD82E085BD54
:1002900016BCEEE6F0E080818160808310928501DB
:1002A00010928601109287011092880110928901A4
:1002B00010928A0110928B0110928C0110928D0184
:1002C00010928E0110928F01109290011092910164
:1002D0001092920110929301109294011092950144
:1002E0001092960110929701109298011092990124
:1002F00010929A0110929B0110929C0110929D0104
:1003000010929E0110929F011092A0011092A101E3
:100310001092A2011092A3011092A4011092A501C3
:100320001092A6011092A7011092A8011092A901A3
:100330001092AA011092AB011092AC01789408952A
:100340001F920F920FB60F9211248F939F93AF932A
:10035000BF934A9B20C08091850190918601A09116
:100360008701B09188018093800190938101A093CF
:100370008201B09383011092850110928601109240
:100380008701109288011092A9011092AA0110927F
:10039000AB011092AC01BF91AF919F918F910F90E3
:1003A0000FBE0F901F90189581E0809369008DBB60
:1003B0000895681710F4861B0895681B862F08950A
:1003C000282FDB01CA01243028F42AE030E040E085
:1003D00050E02EC1263050F49A01AB01F5E056955D
:1003E000479537952795FA95D1F722C12A3018F409
:1003F0009A01AB0116C1203188F49A01AB01E4E007
:100400005695479537952795EA95D1F776E0B695B5
:10041000A795979587957A95D1F712C02631A8F4BC
:100420009A01AB0164E056954795379527956A95F3
:10043000D1F7F5E0B695A79597958795FA95D1F7F9
:10044000280F391F4A1F5B1FF3C02C3188F49A0113
:10045000AB01E4E05695479537952795EA95D1F796
:1004600075E0B695A795979587957A95D1F75FC072
:10047000203218F49A01AB01BFC0203450F49A0125
:10048000AB0163E056954795379527956A95D1F767
:10049000D0CF203550F49A01AB01F3E05695479543
:1004A00037952795FA95D1F75CC0203688F49A01E4
:1004B000AB01E3E05695479537952795EA95D1F737
:1004C00074E0B695A795979587957A95D1F72FC043
:1004D000203718F49A01AB0178C027FD0AC09A01B1
:1004E000AB0162E056954795379527956A95D1F708
:1004F00038C02E3850F49A01AB01F2E0569547957A
:1005000037952795FA95D1F73CC0203AC8F49A015F
:10051000AB01E2E05695479537952795EA95D1F7D7
:1005200073E0B695A795979587957A95D1F7280F9B
:10053000391F4A1F5B1FB695A7959795879580CF62
:10054000223B38F49A01AB0156954795379527958C
:100550006FC0243B70F49A01AB01569547953795CF
:10056000279574E0B695A795979587957A95D1F7D5
:1005700067CF2C3B70F49A01AB01569547953795A0
:100580002795F3E0B695A79597958795FA95D1F7B6
:1005900057CF243C70F49A01AB0156954795379597
:1005A000279572E0B695A795979587957A95D1F797
:1005B00047CF2A3C90F49A01AB01220F331F441F0E
:1005C000551F280F391F4A1F5B1FA2E056954795FC
:1005D00037952795AA95D1F72BC02E3CA8F49A0100
:1005E000AB01F3E0220F331F441F551FFA95D1F7DB
:1005F000281B390B4A0B5B0BE3E056954795379563
:100600002795EA95D1F714C09A01AB0174E0220F47
:10061000331F441F551F7A95D1F7281B390B4A0BFE
:100620005B0B64E056954795379527956A95D1F70A
:10063000B901CA0108950F931F938B019C014130AA
:1006400049F1423029F4369527951795079522C030
:10065000443041F482E036952795179507958A95A1
:10066000D1F718C0483041F4B3E036952795179577
:100670000795BA95D1F70EC0403141F4A4E0369504
:10068000279517950795AA95D1F704C00E94260DC6
:100690008B019C01B801C9011F910F9108952F9200
:1006A0003F924F925F926F927F928F929F92AF9202
:1006B000BF92CF92DF92EF92FF920F931F93DF933F
:1006C000CF93CDB7DEB7C058D0400FB6F894DEBF99
:1006D0000FBECDBF0E9444015298539A519A84B1E3
:1006E0008F6384B98AB1806C8AB987B1837C87B9FA
:1006F00087B1807C87B988B1807C88B980E8809395
:100700007A0080E280937C0080917A0087608093F9
:100710007A0080917A00806480937A0081E08093EF
:1007200069008DBBC158DF4F19821882CF57D04066
:10073000EB961FAEEB97EA961FAEEA97E9961FAECF
:10074000E9972FE7E8962FAFE897E7961FAEE79770
:10075000E6962FAFE697E5962FAFE597E4962FAF95
:10076000E497E3962FAFE397E2962FAFE2973FEF40
:10077000E1963FAFE197E0962FAFE097AF961FAEBF
:10078000AF97AE961FAEAE97AD961FAEAD97AC9637
:100790001FAEAC97AB961FAEAB97AA961FAEAA97AB
:1007A000A9961FAEA997A8961FAEA897A7961FAEA9
:1007B000A797A6961FAEA697A5961FAEA597A49637
:1007C0001FAEA497F0EAAF2EF1E4BF2EC12CD12CBE
:1007D000A3961CAE1DAE1EAE1FAEA3976F961CAEA9
:1007E0001DAE1EAE1FAE6F976B961CAE1DAE1EAE3D
:1007F0001FAE6B9767961CAE1DAE1EAE1FAE679701
:1008000063961CAE1DAE1EAE1FAE63972F961CAE38
:100810001DAE1EAE1FAE2F972B961CAE1DAE1EAE8C
:100820001FAE2B9780ED90E2A0E0B0E027968CAF52
:100830009DAFAEAFBFAF279728E630E140E050E074
:1008400023962CAF3DAF4EAF5FAF239780EF9AE07A
:10085000A0E0B0E08BAF9CAFADAFBEAF28E938E011
:1008600040E050E02FAB38AF49AF5AAF80E996E097
:10087000A0E0B0E08BAB9CABADABBEAB28E735E006
:1008800040E050E02FA738AB49AB5AAB8AE194E087
:10089000A0E0B0E08BA79CA7ADA7BEA79FEF9AA74B
:1008A0001EA21FA218A619A61AA21BA21CA21DA254
:1008B000222433242101662477244301EE24FF24DB
:1008C000870119A218A21F8E1E8E1D8E198E1A8ED8
:1008D0001B8E1C8E1D8A1E8A1F8A188E198A1A8AE0
:1008E0001B8A1C8A1D861E861F86188A19861A86F0
:1008F0001B861C8618861F821E821D821C82A2E017
:10090000AB831A8261E0C158DF4FE881F981CF578C
:10091000D0403196C158DF4FF983E883CF57D0409C
:10092000E536F10508F409C280917A0084FFFCCF16
:1009300080917A00806180937A0080917900EB96B3
:10094000FFADEB97F430D9F4E9962FADE997821714
:1009500018F4922F981B05C0982FE9963FADE997A0
:10096000931B923018F0E9968FAFE997882309F02E
:1009700064C0E9961FAEE9974FEF4AA75EC0EB96B9
:100980005FADEB97552399F4E7969FADE7978917ED
:1009900010F4981B05C0982FE796AFADE7979A1B08
:1009A000923008F44AC0E7968FAFE79746C0EB96BF
:1009B000BFADEB97B33099F4E896EFADE8978E179B
:1009C00018F49E2F981B05C0982FE896FFADE89766
:1009D0009F1B923090F1E8968FAFE8972EC0EB9670
:1009E0002FADEB97213099F4EA963FADEA97831744
:1009F00018F4932F981B05C0982FEA964FADEA97ED
:100A0000941B9230D0F0EA968FAFEA9716C0EB961F
:100A10005FADEB97523089F4E6969FADE697891764
:100A200010F4981B05C0982FE696AFADE6979A1B79
:100A3000923018F0E6968FAFE69780917A00806446
:100A400080937A00EB96BFADEB97BF5FEB96BFAF9D
:100A5000EB97B63018F0EB961FAEEB97EB968FAD99
:100A6000EB97806280937C00EB96EFADEB97EE23E3
:100A700009F05DC1EA96AFADEA97A295A695A77079
:100A800089B190E0E5E096958795EA95E1F7B82F72
:100A9000B170E196FFADE197AF1731F4E0962FAD5D
:100AA000E097B21709F48CC03A2F3F5FAF963FAF83
:100AB000AF9737703F5FAE963FAFAE974A2F4E5F0E
:100AC00047704F5FAD964FAFAD975A2F5D5F577030
:100AD0005F5FAC965FAFAC978A2F8C5F87708F5F3C
:100AE000AB968FAFAB979A2F9B5F97709F5FAA963D
:100AF0009FAFAA97EA2FE95FE770EF5FA996EFAF84
:100B0000A9974D9910C0A8964FAFA897A7965FAF29
:100B1000A797A6968FAFA697A5969FAFA597A496E1
:100B2000EFAFA4974CC0AF96FFADAF97FF0FFF0F8D
:100B3000AF96FFAFAF97AE962FADAE97220F220FB5
:100B4000AE962FAFAE97AD963FADAD97A8963FAF9F
:100B5000A897432F440F440FAD964FAFAD97AC9677
:100B60005FADAC97A7965FAFA797852F880F880FCB
:100B7000AC968FAFAC97AB969FADAB97A6969FAF59
:100B8000A697E92FEE0FEE0FAB96EFAFAB97AA96B5
:100B9000FFADAA97A596FFAFA5972F2F220F220F83
:100BA000AA962FAFAA97A9963FADA997A4963FAF53
:100BB000A497432F440F440FA9964FAFA99761E024
:100BC000E6965FADE697E4968FADE497581739F453
:100BD000E8969FADE897E396EFADE3979E1361E04B
:100BE000E996FFADE997E2962FADE297F217A1F0F3
:100BF0002F2F30E0F13858F04FEF50E0421B530BED
:100C00009A0120503F4FF901F081F09504C0205027
:100C10003F4FF901F081FAA7E7962FADE797E596E8
:100C20003FADE597231709F464C030E0C9018F7721
:100C30009070AC01440F551F440F551F480F591FAA
:100C4000440F452F441F550B5195842F8E5F8B8386
:100C5000E7969FADE79797FD23C0E5969FAFE59791
:100C6000E696EFADE697E496EFAFE497E896FFAD32
:100C7000E897E396FFAFE397E9962FADE997E29601
:100C80002FAFE297E196AFAFE197E096BFAFE09765
:100C9000C158DF4F19821882CF57D0401A824DC0F9
:100CA00028713070F3E035952795FA95E1F7822F9A
:100CB0008F5F8A839B818917E0F0E42FEF5FEA83DF
:100CC000E796FFADE797E596FFAFE597E6962FAD80
:100CD000E697E4962FAFE497E8963FADE897E39662
:100CE0003FAFE397E9964FADE997E2964FAFE297B2
:100CF00018C0E7965FADE797E5965FAFE597E69694
:100D00008FADE697E4968FAFE497E8969FADE897AE
:100D1000E3969FAFE397E996EFADE997E296EFAFE1
:100D2000E297E196AFAFE197E096BFAFE097C15889
:100D3000DF4F19821882CF57D0404A9B02C05B9880
:100D40000BC05B9AF8948091850190918601A091E7
:100D50008701B09188017894F8948091A9019091CD
:100D6000AA01A091AB01B091AC017894809180016F
:100D700090918101A0918201B09183010097A1051A
:100D8000B10509F4B0C04A9BAEC0F89480918001CF
:100D900090918101A0918201B09183010097A105FA
:100DA000B105A1F0A0908001B0908101C0908201B6
:100DB000D0908301109280011092810110928201E3
:100DC00010928301F1E0F093840121C08091A90188
:100DD0009091AA01A091AB01B091AC01A816B906FF
:100DE000CA06DB06A0F48091A9019091AA01A09106
:100DF000AB01B091AC018A199B09AC09BD09809384
:100E0000A9019093AA01A093AB01B093AC011092F9
:100E1000890110928A0110928B0110928C0110921C
:100E20008D0110928E0110928F01109290011092FC
:100E300091011092920110929301109294011092DC
:100E400095011092960110929701109298011092BC
:100E5000990110929A0110929B0110929C0110929C
:100E60009D0110929E0110929F011092A00110927C
:100E7000A1011092A2011092A3011092A40110925C
:100E8000A5011092A6011092A7011092A8017894D2
:100E90004C9B28984C9B29984C9B2A984C9B2B98B0
:100EA0004C9B2C984C9B2D984C9B5F984C9B0DC059
:100EB00019A218A21F8E1E8E1D8E18861F821E82DA
:100EC0001D821C8222E0298313C05E9819A218A2F9
:100ED0001F8E1E8E1D8E18861F821E821D821C82F2
:100EE00032E0398305C0662309F442C241E04983F8
:100EF000E8968FADE897B601A5010E94E0017B015D
:100F00008C01AF964FADAF970E941B0327966CAF35
:100F10007DAF8EAF9FAF2797C801B701AE964FAD9B
:100F2000AE970E941B0323966CAF7DAF8EAF9FAF31
:100F30002397C801B701AD964FADAD970E941B0333
:100F40006BAF7CAF8DAF9EAFC801B701AC964FAD14
:100F5000AC970E941B036FAB78AF89AF9AAFC80103
:100F6000B701AB964FADAB970E941B036BAB7CAB4D
:100F70008DAB9EABC801B701AA964FADAA970E9450
:100F80001B036FA778AB89AB9AABC801B701A996D1
:100F90004FADA9970E941B036BA77CA78DA79EA7A7
:100FA000A3968CAD9DADAEADBFADA3970C97A1053B
:100FB000B105A8F027962CAD3DAD4EAD5FAD27979E
:100FC0002A3031054105510550F48AE090E0A0E057
:100FD000B0E027968CAF9DAFAEAFBFAF27976F96AF
:100FE0002CAD3DAD4EAD5FAD6F972C303105410559
:100FF0005105A0F023968CAD9DADAEADBFAD23974E
:101000000A97A105B10550F42AE030E040E050E035
:1010100023962CAF3DAF4EAF5FAF23976B968CAD51
:101020009DADAEADBFAD6B970C97A105B10588F036
:101030002BAD3CAD4DAD5EAD2A30310541055105BE
:1010400040F48AE090E0A0E0B0E08BAF9CAFADAFA1
:10105000BEAF67962CAD3DAD4EAD5FAD67972C3002
:1010600031054105510580F08FA998ADA9ADBAAD04
:101070000A97A105B10540F42AE030E040E050E0D5
:101080002FAB38AF49AF5AAF63968CAD9DADAEADC7
:10109000BFAD63970C97A105B10588F02BA93CA9BA
:1010A0004DA95EA92A3031054105510540F48AE079
:1010B00090E0A0E0B0E08BAB9CABADABBEAB2F96AD
:1010C0002CAD3DAD4EAD5FAD2F972C3031054105B8
:1010D000510580F08FA598A9A9A9BAA90A97A105D9
:1010E000B10540F42AE030E040E050E02FA738ABF3
:1010F00049AB5AAB2B968CAD9DADAEADBFAD2B972A
:101100000C97A105B10588F02BA53CA54DA55EA5C2
:101110002A3031054105510540F48AE090E0A0E015
:10112000B0E08BA79CA7ADA7BEA7C601B501AF963F
:101130004FADAF970E941B03A3966CAF7DAF8EAFF0
:101140009FAFA397C601B501AE964FADAE970E9473
:101150001B036F966CAF7DAF8EAF9FAF6F97C601CD
:10116000B501AD964FADAD970E941B036B966CAF6A
:101170007DAF8EAF9FAF6B97C601B501AC964FADFB
:10118000AC970E941B0367966CAF7DAF8EAF9FAF8D
:101190006797C601B501AB964FADAB970E941B0395
:1011A00063966CAF7DAF8EAF9FAF6397C601B501FD
:1011B000AA964FADAA970E941B032F966CAF7DAFE6
:1011C0008EAF9FAF2F97C601B501A9964FADA997D6
:1011D0000E941B032B966CAF7DAF8EAF9FAF2B97FA
:1011E000E6969FADE697923090F41EA21FA218A635
:1011F00019A61AA21BA21CA21DA22224332421017B
:10120000662477244301EE24FF24870191C0E696EB
:10121000AFADE697EA2EFF2400E010E06BAD7CADA9
:101220008DAD9EAD60957095809590956B962CAD2B
:101230003DAD4EAD5FAD6B97620F731F841F951F61
:10124000A80197010E94390D272F382F492F5527C4
:101250002EA33FA348A759A76FA978AD89AD9AAD32
:10126000609570958095909567962CAD3DAD4EAD8F
:101270005FAD6797620F731F841F951FA8019701C9
:101280000E94390D272F382F492F55272AA33BA31A
:101290004CA35DA36BA97CA98DA99EA960957095AF
:1012A0008095909563962CAD3DAD4EAD5FAD639747
:1012B000620F731F841F951FA80197010E94390DAB
:1012C000272E382E492E55246FA578A989A99AA9C9
:1012D00060957095809590952F962CAD3DAD4EAD57
:1012E0005FAD2F97620F731F841F951FA801970191
:1012F0000E94390D672E782E892E99246BA57CA526
:101300008DA59EA560957095809590952B962CAD9A
:101310003DAD4EAD5FAD2B97620F731F841F951FC0
:10132000A80197010E94390DE72EF82E092F1127E9
:1013300039813230E1F48EA19FA1A8A5B9A5898F8A
:101340009A8FAB8FBC8F2AA13BA14CA15DA12D8BA5
:101350003E8B4F8B588F298A3A8A4B8A5C8A6D86DE
:101360007E868F86988AE986FA860B871C8760E0DE
:1013700080918401882309F4C1C2F8948091890185
:1013800090918A01A0918B01B0918C017894A396E1
:101390002CAD3DAD4EAD5FADA39782179307A4076B
:1013A000B50760F0F8941092890110928A011092AA
:1013B0008B0110928C0178944C9B2898F894809122
:1013C0008D0190918E01A0918F01B0919001789440
:1013D0006F962CAD3DAD4EAD5FAD6F978217930705
:1013E000A407B50760F0F89410928D0110928E0159
:1013F00010928F011092900178944C9B2998F89448
:101400008091910190919201A0919301B0919401EA
:10141000EF968CAF9DAFAEAFBFAFEF977894898D4D
:101420009A8DAB8DBC8D6B962CAD3DAD4EAD5FAD49
:101430006B97820F931FA41FB51FEF962CAD3DAD88
:101440004EAD5FADEF97281739074A075B0708F4E1
:1014500054C0F8941092910110929201109293014D
:101460001092940178943AA5832F90E028E030E020
:10147000A8964FADA897241B310902C09595879572
:101480002A95E2F709A002C0959587950A94E2F79C
:1014900080FF02C04C9B2A9859A15F5F59A3A89670
:1014A0008FADA897581710F019A218869885AA81B1
:1014B0009A1729F0198E1A8E1B8E1C8E0FC02EA122
:1014C0003FA148A559A550954095309521953F4F8E
:1014D0004F4F5F4F298F3A8F4B8F5C8F38853F5F1F
:1014E00038874B81341748F08EA19FA1A8A5B9A5D4
:1014F000898F9A8FAB8FBC8F1886F89420919501B5
:10150000309196014091970150919801EF962CAF40
:101510003DAF4EAF5FAFEF9778948D899E89AF89CD
:10152000B88D67962CAD3DAD4EAD5FAD6797820F20
:10153000931FA41FB51FEF962CAD3DAD4EAD5FAD13
:10154000EF97281739074A075B0708F454C0F89447
:1015500010929501109296011092970110929801A5
:1015600078943AA5832F90E028E030E0A7964FAD1D
:10157000A797241B310902C0959587952A95E2F714
:1015800008A002C0959587950A94E2F780FF02C0F3
:101590004C9B2B9858A15F5F58A3A7968FADA79738
:1015A000581710F018A21F829F81AA819A1729F05C
:1015B0001D8A1E8A1F8A188E0FC02AA13BA14CA12A
:1015C0005DA150954095309521953F4F4F4F5F4F0E
:1015D0002D8B3E8B4F8B588F3F813F5F3F834B81DD
:1015E000341748F08AA19BA1ACA1BDA18D8B9E8B25
:1015F000AF8BB88F1F82F8942091990130919A0196
:1016000040919B0150919C01EF962CAF3DAF4EAFA6
:101610005FAFEF97789489899A89AB89BC89639683
:101620002CAD3DAD4EAD5FAD6397820F931FA41FF0
:10163000B51FEF962CAD3DAD4EAD5FADEF972817C2
:1016400039074A075B0708F44CC0F89410929901D7
:1016500010929A0110929B0110929C0178943AA5E5
:10166000832F90E028E030E0A6964FADA697241B8C
:10167000310902C0959587952A95E2F70F8C02C033
:10168000959587950A94E2F780FF02C04C9B2C98B1
:101690005F8D5F5F5F8FA6968FADA697581710F08E
:1016A0001F8E1E829E81AA819A1729F0198A1A8A92
:1016B0001B8A1C8A0BC022273327A9012219330950
:1016C00044095509298B3A8B4B8B5C8B3E813F5FDC
:1016D0003E834B81341728F0298A3A8A4B8A5C8AE8
:1016E0001E82F89480919D0190919E01A0919F018E
:1016F000B091A001EF968CAF9DAFAEAFBFAFEF97AB
:1017000078948D859E85AF85B8892F962CAD3DAD9B
:101710004EAD5FAD2F97820F931FA41FB51FEF969D
:101720002CAD3DAD4EAD5FADEF97281739074A0799
:101730005B0708F44CC0F89410929D0110929E0132
:1017400010929F011092A00178943AA5832F90E007
:1017500028E030E0A5964FADA597241B310902C0C3
:10176000959587952A95E2F70E8C02C095958795F9
:101770000A94E2F780FF02C04C9B2D985E8D5F5F5C
:101780005E8FA5968FADA597581710F01E8E1D82FF
:101790009D81AA819A1729F01D861E861F86188AA8
:1017A0000BC022273327A9012619370948095909EF
:1017B0002D873E874F87588B3D813F5F3D834B810F
:1017C000341728F06D867E868F86988A1D82F8945D
:1017D0008091A1019091A201A091A301B091A401D7
:1017E000EF968CAF9DAFAEAFBFAFEF977894898582
:1017F0009A85AB85BC852B962CAD3DAD4EAD5FADCE
:101800002B97820F931FA41FB51FEF962CAD3DADF4
:101810004EAD5FADEF97281739074A075B0708F40D
:101820004CC0F8941092A1011092A2011092A30151
:101830001092A40178943AA5832F90E028E030E03C
:10184000A4964FADA497241B310902C095958795A6
:101850002A95E2F70D8C02C0959587950A94E2F7D8
:1018600080FF02C04C9B5F985D8D5F5F5D8FA4968B
:101870008FADA497581710F01D8E1C829C81AA81F1
:101880009A1729F019861A861B861C860BC02227F8
:101890003327A9012E193F09400B510B29873A879D
:1018A0004B875C873C813F5F3C834B81341728F03A
:1018B000E986FA860B871C871C82F8948091A50123
:1018C0009091A601A091A701B091A80178942B96C0
:1018D0002CAD3DAD4EAD5FAD2B9782179307A4079E
:1018E000B50760F0F8941092A5011092A60110922D
:1018F000A7011092A80178944C9B5E98F89480916F
:10190000890190918A01A0918B01B0918C0178940A
:1019100027962CAD3DAD4EAD5FAD2797821793074F
:10192000A407B50708F0289AF89480918D0190914A
:101930008E01A0918F01B0919001789423962CADE7
:101940003DAD4EAD5FAD239782179307A407B50752
:1019500008F0299AF8948091910190919201A091B8
:101960009301B091940178942BAD3CAD4DAD5EAD3B
:1019700082179307A407B50708F02A9AF894809174
:10198000950190919601A0919701B091980178945A
:101990002FA938AD49AD5AAD82179307A407B507F3
:1019A00008F02B9AF8948091990190919A01A09156
:1019B0009B01B0919C0178942BA93CA94DA95EA9EB
:1019C00082179307A407B50708F02C9AF894809122
:1019D0009D0190919E01A0919F01B091A0017894EA
:1019E0002FA538A949A95AA982179307A407B507B3
:1019F00008F02D9AF8948091A1019091A201A091F4
:101A0000A301B091A40178942BA53CA54DA55EA59A
:101A100082179307A407B50708F05F9AF89480919E
:101A2000A5019091A601A091A701B091A801789479
:101A30002BA53CA54DA55EA582179307A407B50766
:101A400010F40C9483045E9A0C9483041F932F93D8
:101A5000222710E2660F771F881F991F221F10F0A0
:101A6000241710F0241B61601A95A1F72F911F9184
:101A70000895629FD001739FF001829FE00DF11DD8
:101A8000649FE00DF11D929FF00D839FF00D749FF8
:101A9000F00D659FF00D9927729FB00DE11DF91FA4
:101AA000639FB00DE11DF91FBD01CF011124089501
:041AB000F894FFCFD8
:101AB400FFFEFDFBF7EFDFBF7F3F9FCFE7F3F9FCAE
:101AC400FAF5EBD7AF5F6FB7DBEDF6EEDDBB777BF7
:101AD400BDDEBE7D7E3E5E6E767A7CBCBAB6AE9EC0
:101AE4009DADB5B9D9D5CDCBD3E3C7E3F1F81F8FFD
:101AF400D3E9F4ECB367DCF0E8D8B878746C5C3CF8
:101B04003A362E1E1D1B170F1B3363C3C6CC6663E8
:101B1400C6C3C5C9D1D2D46A352D5AB4AC562B4BE1
:101B240096A653939555AA55AA55AA55AA55AA55AA
:00000001FF
