:100000000C9434000C94A0010C9451000C945100F9
:100010000C9451000C9451000C9451000C9451001C
:100020000C9451000C9451000C9451000C9451000C
:100030000C9451000C9451000C9451000C945100FC
:100040000C9453000C9451000C9451000C945100EA
:100050000C9451000C9451000C9451000C945100DC
:100060000C9451000C94510011241FBECFEFD4E02A
:10007000DEBFCDBF11E0A0E0B1E0ECEBFBE102C0E0
:1000800005900D92A038B107D9F711E0A0E8B1E0D2
:1000900001C01D92AD3AB107E1F70E9452030C94E2
:1000A000DC0D0C9400001F920F920FB60F921124DA
:1000B0008F939F93AF93BF93809185019091860119
:1000C000A0918701B09188010196A11DB11D809377
:1000D000850190938601A0938701B0938801809158
:1000E000890190918A01A0918B01B0918C010196B8
:1000F000A11DB11D8093890190938A01A0938B016A
:10010000B0938C0180918D0190918E01A0918F010F
:10011000B09190010196A11DB11D80938D01909326
:100120008E01A0938F01B0939001809191019091E5
:100130009201A0919301B09194010196A11DB11D6E
:100140008093910190939201A0939301B0939401B5
:100150008091950190919601A0919701B09198019D
:100160000196A11DB11D8093950190939601A093D6
:100170009701B09398018091990190919A01A09173
:100180009B01B0919C010196A11DB11D8093990125
:1001900090939A01A0939B01B0939C0180919D0143
:1001A00090919E01A0919F01B091A0010196A11D87
:1001B000B11D80939D0190939E01A0939F01B093E8
:1001C000A0018091A1019091A201A091A301B09101
:1001D000A4010196A11DB11D8093A1019093A201DC
:1001E000A093A301B093A4018091A5019091A601D1
:1001F000A091A701B091A8010196A11DB11D809306
:10020000A5019093A601A093A701B093A8018091A6
:10021000A9019091AA01A091AB01B091AC01019606
:10022000A11DB11D8093A9019093AA01A093AB01D8
:10023000B093AC0116BCBF91AF919F918F910F907D
:100240000FBE0F901F901895E82FF894F0E0EE0F76
:10025000FF1FEE0FFF1FEB57FE4F208131814281C0
:1002600053817894B901CA010895E82FF894F0E019
:10027000EE0FFF1FEE0FFF1FEB57FE4F1082118294
:10028000128213827894089583E084BD82E085BD54
:1002900016BCEEE6F0E080818160808310928501DB
:1002A00010928601109287011092880110928901A4
:1002B00010928A0110928B0110928C0110928D0184
:1002C00010928E0110928F01109290011092910164
:1002D0001092920110929301109294011092950144
:1002E0001092960110929701109298011092990124
:1002F00010929A0110929B0110929C0110929D0104
:1003000010929E0110929F011092A0011092A101E3
:100310001092A2011092A3011092A4011092A501C3
:100320001092A6011092A7011092A8011092A901A3
:100330001092AA011092AB011092AC01789408952A
:100340001F920F920FB60F9211248F939F93AF932A
:10035000BF934A9B23C08091850190918601A09113
:100360008701B09188018093800190938101A093CF
:100370008201B09383011092850110928601109240
:100380008701109288011092A9011092AA0110927F
:10039000AB011092AC0181E080938401BF91AF91D9
:1003A0009F918F910F900FBE0F901F90189581E035
:1003B000809369008DBB0895681710F4861B08951B
:1003C000681B862F0895282FDB01CA01243028F4EA
:1003D0002AE030E040E050E02EC1263050F49A018F
:1003E000AB01F5E05695479537952795FA95D1F7E6
:1003F00022C12A3018F49A01AB0116C1203188F4C9
:100400009A01AB01E4E05695479537952795EA9513
:10041000D1F776E0B695A795979587957A95D1F718
:1004200012C02631A8F49A01AB0164E056954795B5
:10043000379527956A95D1F7F5E0B695A7959795E5
:100440008795FA95D1F7280F391F4A1F5B1FF3C014
:100450002C3188F49A01AB01E4E056954795379525
:100460002795EA95D1F775E0B695A7959795879565
:100470007A95D1F75FC0203218F49A01AB01BFC062
:10048000203450F49A01AB0163E0569547953795B7
:1004900027956A95D1F7D0CF203550F49A01AB015A
:1004A000F3E05695479537952795FA95D1F75CC0B7
:1004B000203688F49A01AB01E3E0569547953795CD
:1004C0002795EA95D1F774E0B695A7959795879506
:1004D0007A95D1F72FC0203718F49A01AB0178C074
:1004E00027FD0AC09A01AB0162E056954795379502
:1004F00027956A95D1F738C02E3850F49A01AB0190
:10050000F2E05695479537952795FA95D1F73CC077
:10051000203AC8F49A01AB01E2E056954795379529
:100520002795EA95D1F773E0B695A79597958795A6
:100530007A95D1F7280F391F4A1F5B1FB695A795EB
:100540009795879580CF223B38F49A01AB01569559
:100550004795379527956FC0243B70F49A01AB01FE
:10056000569547953795279574E0B695A795979535
:1005700087957A95D1F767CF2C3B70F49A01AB0140
:100580005695479537952795F3E0B695A795979596
:100590008795FA95D1F757CF243C70F49A01AB01B7
:1005A000569547953795279572E0B695A7959795F7
:1005B00087957A95D1F747CF2A3C90F49A01AB0101
:1005C000220F331F441F551F280F391F4A1F5B1F5F
:1005D000A2E05695479537952795AA95D1F72BC058
:1005E0002E3CA8F49A01AB01F3E0220F331F441F05
:1005F000551FFA95D1F7281B390B4A0B5B0BE3E02B
:100600005695479537952795EA95D1F714C09A01E5
:10061000AB0174E0220F331F441F551F7A95D1F7A9
:10062000281B390B4A0B5B0B64E0569547953795B1
:1006300027956A95D1F7B901CA0108950F931F93C1
:100640008B019C01413049F1423029F436952795C0
:100650001795079522C0443041F482E036952795DE
:10066000179507958A95D1F718C0483041F4B3E043
:100670003695279517950795BA95D1F70EC0403155
:1006800041F4A4E03695279517950795AA95D1F7DB
:1006900004C00E94AA0D8B019C01B801C9011F91E1
:1006A0000F9108952F923F924F925F926F927F9297
:1006B0008F929F92AF92BF92CF92DF92EF92FF9272
:1006C0000F931F93DF93CF93CDB7DEB7C058D040C1
:1006D0000FB6F894DEBF0FBECDBF0E944401529802
:1006E000539A519A84B18F6384B98AB1806C8AB964
:1006F00087B1837C87B987B1807C87B988B1807CDA
:1007000088B980E880937A0080E280937C008091B1
:100710007A00876080937A0080917A008064809369
:100720007A0081E0809369008DBBC158DF4F198248
:100730001882CF57D040EB961FAEEB97EA961FAECC
:10074000EA97E9961FAEE9972FE7E8962FAFE8976B
:10075000E7961FAEE797E6962FAFE697E5962FAFA1
:10076000E597E4962FAFE497E3962FAFE397E296F1
:100770002FAFE2973FEFE1963FAFE197E0962FAFC3
:10078000E097AF961FAEAF97AE961FAEAE97AD9601
:100790001FAEAD97AC961FAEAC97AB961FAEAB97A6
:1007A000AA961FAEAA97A9961FAEA997A8961FAEA4
:1007B000A897A7961FAEA797A6961FAEA697A59631
:1007C0001FAEA597A4961FAEA49700EAA02E01E441
:1007D000B02EC12CD12CA3961CAE1DAE1EAE1FAEEA
:1007E000A3976F961CAE1DAE1EAE1FAE6F976B9695
:1007F0001CAE1DAE1EAE1FAE6B9767961CAE1DAE37
:100800001EAE1FAE679763961CAE1DAE1EAE1FAE2A
:1008100063972F961CAE1DAE1EAE1FAE2F972B9664
:100820001CAE1DAE1EAE1FAE2B9780ED90E2A0E079
:10083000B0E027968CAF9DAFAEAFBFAF279728E64D
:1008400030E140E050E023962CAF3DAF4EAF5FAFBC
:10085000239780EF9AE0A0E0B0E08BAF9CAFADAF04
:10086000BEAF28E938E040E050E02FAB38AF49AFE9
:100870005AAF80E996E0A0E0B0E08BAB9CABADABAB
:10088000BEAB28E735E040E050E02FA738AB49ABDE
:100890005AAB1AE1212E14E0312E412C512C3FEF9E
:1008A0003EA71AA61BA61CA61DA61EA21FA218A61E
:1008B00019A61AA21BA21CA21DA26624772443011A
:1008C000EE24FF24870119A218A21F8E1E8E1D8EF2
:1008D000198E1A8E1B8E1C8E1D8A1E8A1F8A188ED8
:1008E000198A1A8A1B8A1C8A1D861E861F86188AE8
:1008F00019861A861B861C8618861F821E821D82F8
:100900001C8242E04B831A8251E05983C158DF4F69
:1009100088819981CF57D0400196C158DF4F998384
:100920008883CF57D0408536910508F412C2809154
:100930007A0084FFFCCF80917A00806180937A00F6
:1009400080917900EB969FADEB979430D9F4E996BE
:10095000AFADE9978A1718F49A2F981B05C0982F06
:10096000E996BFADE9979B1B923018F0E9968FAFDF
:10097000E997882309F066C0E9961FAEE997EFEF83
:10098000EEA760C0EB96FFADEB97FF23A1F4E796CF
:100990002FADE797821718F4922F981B05C0982F58
:1009A000E7963FADE797931B923008F44BC0E7966C
:1009B0008FAFE79747C0EB964FADEB97433099F475
:1009C000E8965FADE897851718F4952F981B05C03A
:1009D000982FE896AFADE8979A1B923098F1E89679
:1009E0008FAFE8972FC0EB96BFADEB97B13099F47E
:1009F000EA96EFADEA978E1718F49E2F981B05C064
:100A0000982FEA96FFADEA979F1B9230D8F0EA96AE
:100A10008FAFEA9717C0EB962FADEB97223091F48A
:100A2000E6963FADE697831718F4932F981B05C001
:100A3000982FE6964FADE697941B923018F0E69605
:100A40008FAFE69780917A00806480937A00EB966E
:100A50005FADEB975F5FEB965FAFEB97563018F0AB
:100A6000EB961FAEEB97EB968FADEB978062809382
:100A70007C00EB968FADEB97882309F064C1EA9672
:100A8000AFADEA97A295A695A77089B190E0B5E0C1
:100A900096958795BA95E1F7B82FB170E1969FAD1D
:100AA000E197A91731F4E096EFADE097BE1709F48E
:100AB0008FC0FA2FFF5FAF96FFAFAF97F770FF5F62
:100AC000AE96FFAFAE972A2F2E5F27702F5FAD96A1
:100AD0002FAFAD973A2F3D5F37703F5FAC963FAF7A
:100AE000AC974A2F4C5F47704F5FAB964FAFAB97B9
:100AF0005A2F5B5F57705F5FAA965FAFAA978A2FE6
:100B0000895F87708F5FA9968FAFA9974D9912C0A3
:100B1000A8962FAFA897A7963FAFA797A6964FAFD7
:100B2000A697A5965FAFA597A4968FAFA49791E0DF
:100B300099834EC0AF96EFADAF97EE0FEE0FAF9625
:100B4000EFAFAF97AE96FFADAE97FF0FFF0FAE962C
:100B5000FFAFAE97AD962FADAD97A8962FAFA897E4
:100B6000322F330F330FAD963FAFAD97AC964FADED
:100B7000AC97A7964FAFA797542F550F550FAC962C
:100B80005FAFAC97AB968FADAB97A6968FAFA6979E
:100B9000982F990F990FAB969FAFAB97AA96EFAD91
:100BA000AA97A596EFAFA597FE2FFF0FFF0FAA9666
:100BB000FFAFAA97A9962FADA997A4962FAFA49798
:100BC000322F330F330FA9963FAFA99741E04983E6
:100BD000E6965FADE697E4968FADE497581741F43B
:100BE000E8969FADE897E396EFADE3979E1711F077
:100BF000F1E0F983E9962FADE997E2963FADE297F0
:100C00002317B1F030E0E9964FADE997413858F03D
:100C10008FEF90E0821B930B9C0120503F4FF90116
:100C2000F081F09504C020503F4FF901F081FEA7FC
:100C3000E7962FADE797E5963FADE597231709F4C3
:100C400064C030E0C9018F779070AC01440F551F2C
:100C5000440F551F480F591F440F452F441F550B74
:100C60005195842F8E5F8B83E7969FADE79797FD15
:100C700023C0E5969FAFE597E696EFADE697E4963D
:100C8000EFAFE497E896FFADE897E396FFAFE39701
:100C9000E9962FADE997E2962FAFE297E196AFAFD5
:100CA000E197E096BFAFE097C158DF4F19821882F5
:100CB000CF57D0401A824DC02871307073E03595FF
:100CC00027957A95E1F7822F8F5F8A839B81891719
:100CD000E0F0E42FEF5FEA83E796FFADE797E59654
:100CE000FFAFE597E6962FADE697E4962FAFE49732
:100CF000E8963FADE897E3963FAFE397E9964FADAF
:100D0000E997E2964FAFE29718C0E7965FADE79795
:100D1000E5965FAFE597E6968FADE697E4968FAFE1
:100D2000E497E8969FADE897E3969FAFE397E9963F
:100D3000EFADE997E296EFAFE297E196AFAFE197BB
:100D4000E096BFAFE097C158DF4F19821882CF57A6
:100D5000D040F8948091A9019091AA01A091AB0193
:100D6000B091AC0178948091800190918101A09123
:100D70008201B09183010097A105B10509F4AFC0CC
:100D80004A9BADC0F8948091800190918101A0911F
:100D90008201B09183010097A105B105A1F0A09057
:100DA0008001B0908101C0908201D09083011092A7
:100DB0008001109281011092820110928301F1E072
:100DC000F093840121C08091A9019091AA01A09182
:100DD000AB01B091AC01A816B906CA06DB06A0F4B7
:100DE0008091A9019091AA01A091AB01B091AC01B1
:100DF0008A199B09AC09BD098093A9019093AA01A6
:100E0000A093AB01B093AC011092890110928A01BA
:100E100010928B0110928C0110928D0110928E0114
:100E200010928F01109290011092910110929201F4
:100E300010929301109294011092950110929601D4
:100E400010929701109298011092990110929A01B4
:100E500010929B0110929C0110929D0110929E0194
:100E600010929F011092A0011092A1011092A20174
:100E70001092A3011092A4011092A5011092A60154
:100E80001092A7011092A80178944C9B28984C9B33
:100E900029984C9B2A984C9B2B984C9B2C984C9BAC
:100EA0002D984C9B5F984C9B0DC019A218A21F8EC9
:100EB0001E8E1D8E18861F821E821D821C8222E0BD
:100EC00029830DC05E9819A218A21F8E1E8E1D8E3A
:100ED00018861F821E821D821C8232E039834A9B43
:100EE00002C05B9886C05B9AF8942091850130918E
:100EF000860140918701509188017894D601C501FF
:100F0000880F991FAA1FBB1F0A96A11DB11D82172A
:100F10009307A407B50708F06CC0F89410928501F8
:100F20001092860110928701109288017894F894AB
:100F30001092890110928A0110928B0110928C01FB
:100F40007894F89410928D0110928E0110928F0176
:100F5000109290017894F89410929101109292015D
:100F600010929301109294017894F8941092950144
:100F70001092960110929701109298017894F8942B
:100F80001092990110929A0110929B0110929C016B
:100F90007894F89410929D0110929E0110929F01F6
:100FA0001092A0017894F8941092A1011092A201DD
:100FB0001092A3011092A4017894F8941092A501C4
:100FC0001092A6011092A7011092A8017894F894AB
:100FD0001092A9011092AA011092AB011092AC01DB
:100FE00078941092840185B18F6385B98BB1806C40
:100FF0008BB94981442309F43FC2E8968FADE89745
:10100000B601A5010E94E3017B018C01AF964FADB3
:10101000AF970E941E0327966CAF7DAF8EAF9FAF38
:101020002797C801B701AE964FADAE970E941E0339
:1010300023966CAF7DAF8EAF9FAF2397C801B701EA
:10104000AD964FADAD970E941E036BAF7CAF8DAFD9
:101050009EAFC801B701AC964FADAC970E941E037E
:101060006FAB78AF89AF9AAFC801B701AB964FAD00
:10107000AB970E941E036BAB7CAB8DAB9EABC801E4
:10108000B701AA964FADAA970E941E036FA778AB2F
:1010900089AB9AABC801B701A9964FADA9970E9439
:1010A0001E031B012C01A3968CAD9DADAEADBFAD53
:1010B000A3970C97A105B105A8F027962CAD3DADDF
:1010C0004EAD5FAD27972A3031054105510550F4EB
:1010D0008AE090E0A0E0B0E027968CAF9DAFAEAF85
:1010E000BFAF27976F962CAD3DAD4EAD5FAD6F97FF
:1010F0002C30310541055105A0F023968CAD9DADF6
:10110000AEADBFAD23970A97A105B10550F42AE013
:1011100030E040E050E023962CAF3DAF4EAF5FAFE4
:1011200023976B968CAD9DADAEADBFAD6B970C9715
:10113000A105B10588F02BAD3CAD4DAD5EAD2A30BB
:1011400031054105510540F48AE090E0A0E0B0E0AF
:101150008BAF9CAFADAFBEAF67962CAD3DAD4EAD86
:101160005FAD67972C3031054105510580F08FA99F
:1011700098ADA9ADBAAD0A97A105B10540F42AE032
:1011800030E040E050E02FAB38AF49AF5AAF639644
:101190008CAD9DADAEADBFAD63970C97A105B1050C
:1011A00088F02BA93CA94DA95EA92A30310541053B
:1011B000510540F48AE090E0A0E0B0E08BAB9CAB3E
:1011C000ADABBEAB2F962CAD3DAD4EAD5FAD2F9709
:1011D0002C3031054105510580F08FA598A9A9A9AA
:1011E000BAA90A97A105B10540F42AE030E040E031
:1011F00050E02FA738AB49AB5AAB2B968CAD9DADC9
:10120000AEADBFAD2B970C97A105B10558F09AE094
:10121000291631044104510428F4FAE02F2E312C10
:10122000412C512CC601B501AF964FADAF970E942E
:101230001E03A3966CAF7DAF8EAF9FAFA397C60181
:10124000B501AE964FADAE970E941E036F966CAF80
:101250007DAF8EAF9FAF6F97C601B501AD964FAD15
:10126000AD970E941E036B966CAF7DAF8EAF9FAFA4
:101270006B97C601B501AC964FADAC970E941E03AB
:1012800067966CAF7DAF8EAF9FAF6797C601B50114
:10129000AB964FADAB970E941E0363966CAF7DAFCC
:1012A0008EAF9FAF6397C601B501AA964FADAA97BF
:1012B0000E941E032F966CAF7DAF8EAF9FAF2F970E
:1012C000C601B501A9964FADA9970E941E032B96A2
:1012D0006CAF7DAF8EAF9FAF2B97E696AFADE69725
:1012E000A23098F41AA61BA61CA61DA61EA21FA219
:1012F00018A619A61AA21BA21CA21DA26624772456
:101300004301EE24FF24870193C0E696BFADE69724
:10131000EB2EFF2400E010E06BAD7CAD8DAD9EADFB
:1013200060957095809590956B962CAD3DAD4EADCA
:101330005FAD6B97620F731F841F951FA801970104
:101340000E94BD0D272F382F492F55272AA73BA7CD
:101350004CA75DA76FA978AD89AD9AAD60957095E2
:101360008095909567962CAD3DAD4EAD5FAD67977E
:10137000620F731F841F951FA80197010E94BD0D66
:10138000272F382F492F55272EA33FA348A759A70A
:101390006BA97CA98DA99EA9609570958095909563
:1013A00063962CAD3DAD4EAD5FAD6397620F731F7D
:1013B000841F951FA80197010E94BD0D272F382F6C
:1013C000492F55272AA33BA34CA35DA36FA578A95A
:1013D00089A99AA960957095809590952F962CADC6
:1013E0003DAD4EAD5FAD2F97620F731F841F951FEC
:1013F000A80197010E94BD0D672E782E892E992491
:10140000C201B10160957095809590952B962CAD99
:101410003DAD4EAD5FAD2B97620F731F841F951FBF
:10142000A80197010E94BD0DE72EF82E092F112764
:101430003981323001F58AA59BA5ACA5BDA5898F60
:101440009A8FAB8FBC8F2EA13FA148A559A52D8B9C
:101450003E8B4F8B588F8AA19BA1ACA1BDA1898BDC
:101460009A8BAB8BBC8B6D867E868F86988AE9863D
:10147000FA860B871C87198280918401882309F4DE
:10148000C9C2F8948091890190918A01A0918B0141
:10149000B0918C017894A3962CAD3DAD4EAD5FAD6F
:1014A000A39782179307A407B50760F0F8941092EA
:1014B000890110928A0110928B0110928C0178940C
:1014C0004C9B2898F89480918D0190918E01A09169
:1014D0008F01B091900178946F962CAD3DAD4EADDB
:1014E0005FAD6F9782179307A407B50760F0F89474
:1014F00010928D0110928E0110928F011092900126
:1015000078944C9B2998F894809191019091920144
:10151000A0919301B0919401EF968CAF9DAFAEAFC7
:10152000BFAFEF977894898D9A8DAB8DBC8D6B96FC
:101530002CAD3DAD4EAD5FAD6B97820F931FA41FD9
:10154000B51FEF962CAD3DAD4EAD5FADEF972817B3
:1015500039074A075B0708F454C0F89410929101C8
:1015600010929201109293011092940178943EA5EA
:10157000832F90E028E030E0A8964FADA897241B79
:10158000310902C0959587952A95E2F709A002C016
:10159000959587950A94E2F780FF02C04C9B2A98A4
:1015A00059A15F5F59A3A8968FADA897581710F05F
:1015B00019A218869885AA819A1729F0198E1A8E71
:1015C0001B8E1C8E0FC02AA53BA54CA55DA5509572
:1015D0004095309521953F4F4F4F5F4F298F3A8F60
:1015E0004B8F5C8F38853F5F38874B81341748F0CD
:1015F0008AA59BA5ACA5BDA5898F9A8FAB8FBC8F03
:101600001886F894209195013091960140919701A8
:1016100050919801EF962CAF3DAF4EAF5FAFEF9773
:1016200078948D899E89AF89B88D67962CAD3DAD34
:101630004EAD5FAD6797820F931FA41FB51FEF9646
:101640002CAD3DAD4EAD5FADEF97281739074A077A
:101650005B0708F454C0F89410929501109296011B
:10166000109297011092980178943EA5832F90E0F4
:1016700028E030E0A7964FADA797241B310902C0A0
:10168000959587952A95E2F708A002C095958795CC
:101690000A94E2F780FF02C04C9B2B9858A15F5F31
:1016A00058A3A7968FADA797581710F018A21F82BE
:1016B0009F81AA819A1729F01D8A1E8A1F8A188E77
:1016C0000FC02EA13FA148A559A550954095309532
:1016D00021953F4F4F4F5F4F2D8B3E8B4F8B588F38
:1016E0003F813F5F3F834B81341748F08EA19FA11C
:1016F000A8A5B9A58D8B9E8BAF8BB88F1F82F89450
:101700002091990130919A0140919B0150919C0147
:10171000EF962CAF3DAF4EAF5FAFEF9778948989CE
:101720009A89AB89BC8963962CAD3DAD4EAD5FAD5A
:101730006397820F931FA41FB51FEF962CAD3DAD8D
:101740004EAD5FADEF97281739074A075B0708F4DE
:1017500054C0F8941092990110929A0110929B0132
:1017600010929C0178943EA5832F90E028E030E011
:10177000A6964FADA697241B310902C09595879573
:101780002A95E2F70F8C02C0959587950A94E2F7A7
:1017900080FF02C04C9B2C985F8D5F5F5F8FA69689
:1017A0008FADA697581710F01F8E1E829E81AA81BA
:1017B0009A1729F0198A1A8A1B8A1C8A0FC02AA133
:1017C0003BA14CA15DA150954095309521953F4F8F
:1017D0004F4F5F4F298B3A8B4B8B5C8B3E813F5F2A
:1017E0003E834B81341748F08AA19BA1ACA1BDA1D7
:1017F000898B9A8BAB8BBC8B1E82F89420919D01B8
:1018000030919E0140919F015091A001EF962CAF25
:101810003DAF4EAF5FAFEF9778948D859E85AF85D6
:10182000B8892F962CAD3DAD4EAD5FAD2F97820F91
:10183000931FA41FB51FEF962CAD3DAD4EAD5FAD10
:10184000EF97281739074A075B0708F44CC0F8944C
:1018500010929D0110929E0110929F011092A00182
:1018600078943EA5832F90E028E030E0A5964FAD18
:10187000A597241B310902C0959587952A95E2F713
:101880000E8C02C0959587950A94E2F780FF02C0FE
:101890004C9B2D985E8D5F5F5E8FA5968FADA59753
:1018A000581710F01E8E1D829D81AA819A1729F06B
:1018B0001D861E861F86188A0BC022273327A90182
:1018C00026193709480959092D873E874F87588BB4
:1018D0003D813F5F3D834B81341728F06D867E86C6
:1018E0008F86988A1D82F8948091A1019091A2011F
:1018F000A091A301B091A401EF968CAF9DAFAEAFC4
:10190000BFAFEF97789489859A85AB85BC852B9678
:101910002CAD3DAD4EAD5FAD2B97820F931FA41F35
:10192000B51FEF962CAD3DAD4EAD5FADEF972817CF
:1019300039074A075B0708F44CC0F8941092A101DC
:101940001092A2011092A3011092A40178943EA5D6
:10195000832F90E028E030E0A4964FADA497241B9D
:10196000310902C0959587952A95E2F70D8C02C042
:10197000959587950A94E2F780FF02C04C9B5F988B
:101980005D8D5F5F5D8FA4968FADA497581710F0A3
:101990001D8E1C829C81AA819A1729F019861A86AD
:1019A0001B861C860BC022273327A9012E193F094D
:1019B000400B510B29873A874B875C873C813F5FFF
:1019C0003C834B81341728F0E986FA860B871C8705
:1019D0001C82F8948091A5019091A601A091A70185
:1019E000B091A80178942B962CAD3DAD4EAD5FAD76
:1019F0002B9782179307A407B50760F0F89410920D
:101A0000A5011092A6011092A7011092A801789446
:101A10004C9B5E98F8948091890190918A01A091E5
:101A20008B01B0918C01789427962CAD3DAD4EADD5
:101A30005FAD279782179307A407B50708F0289A88
:101A4000F89480918D0190918E01A0918F01B091B9
:101A50009001789423962CAD3DAD4EAD5FAD2397AC
:101A600082179307A407B50708F0299AF894809184
:101A7000910190919201A0919301B0919401789479
:101A80002BAD3CAD4DAD5EAD82179307A407B507F6
:101A900008F02A9AF8948091950190919601A0916E
:101AA0009701B091980178942FA938AD49AD5AADFE
:101AB00082179307A407B50708F02B9AF894809132
:101AC000990190919A01A0919B01B0919C01789409
:101AD0002BA93CA94DA95EA982179307A407B507B6
:101AE00008F02C9AF89480919D0190919E01A0910C
:101AF0009F01B091A00178942FA538A949A95AA9AE
:101B000082179307A407B50708F02D9AF8948091DF
:101B1000A1019091A201A091A301B091A401789498
:101B200082159305A405B50508F05F9AF894809195
:101B3000A5019091A601A091A701B091A801789468
:101B400082159305A405B50510F40C9486045E9ADD
:101B50000C9486041F932F93222710E2660F771FA1
:101B6000881F991F221F10F0241710F0241B61609A
:101B70001A95A1F72F911F910895629FD001739F2D
:101B8000F001829FE00DF11D649FE00DF11D929F19
:101B9000F00D839FF00D749FF00D659FF00D992758
:101BA000729FB00DE11DF91F639FB00DE11DF91F7C
:0C1BB000BD01CF0111240895F894FFCF6F
:101BBC00FFFEFDFBF7EFDFBF7F3F9FCFE7F3F9FCA5
:101BCC00FAF5EBD7AF5F6FB7DBEDF6EEDDBB777BEE
:101BDC00BDDEBE7D7E3E5E6E767A7CBCBAB6AE9EB7
:101BEC009DADB5B9D9D5CDCBD3E3C7E3F1F81F8FF4
:101BFC00D3E9F4ECB367DCF0E8D8B878746C5C3CEF
:101C0C003A362E1E1D1B170F1B3363C3C6CC6663DF
:101C1C00C6C3C5C9D1D2D46A352D5AB4AC562B4BD8
:101C2C0096A653939555AA55AA55AA55AA55AA55A1
:00000001FF
