:100000000C9434000C94A0010C9451000C945100F9
:100010000C9451000C9451000C9451000C9451001C
:100020000C9451000C9451000C9451000C9451000C
:100030000C9451000C9451000C9451000C945100FC
:100040000C9453000C9451000C9451000C945100EA
:100050000C9451000C9451000C9451000C945100DC
:100060000C9451000C94510011241FBECFEFD4E02A
:10007000DEBFCDBF11E0A0E0B1E0EEE3FBE102C0E6
:1000800005900D92A238B107D9F711E0A2E8B1E0CE
:1000900001C01D92AE3AB107E1F70E944F030C94E4
:1000A0009D0D0C9400001F920F920FB60F92112419
:1000B0008F939F93AF93BF93809186019091870117
:1000C000A0918801B09189010196A11DB11D809375
:1000D000860190938701A0938801B0938901809154
:1000E0008A0190918B01A0918C01B0918D010196B4
:1000F000A11DB11D80938A0190938B01A0938C0167
:10010000B0938D0180918E0190918F01A09190010B
:10011000B09191010196A11DB11D80938E01909324
:100120008F01A0939001B0939101809192019091E1
:100130009301A0919401B09195010196A11DB11D6B
:100140008093920190939301A0939401B0939501B1
:100150008091960190919701A0919801B091990199
:100160000196A11DB11D8093960190939701A093D4
:100170009801B093990180919A0190919B01A0916F
:100180009C01B0919D010196A11DB11D80939A0122
:1001900090939B01A0939C01B0939D0180919E013F
:1001A00090919F01A091A001B091A1010196A11D84
:1001B000B11D80939E0190939F01A093A001B093E5
:1001C000A1018091A2019091A301A091A401B091FD
:1001D000A5010196A11DB11D8093A2019093A301D9
:1001E000A093A401B093A5018091A6019091A701CD
:1001F000A091A801B091A9010196A11DB11D809304
:10020000A6019093A701A093A801B093A9018091A2
:10021000AA019091AB01A091AC01B091AD01019602
:10022000A11DB11D8093AA019093AB01A093AC01D5
:10023000B093AD0116BCBF91AF919F918F910F907C
:100240000FBE0F901F901895E82FF894F0E0EE0F76
:10025000FF1FEE0FFF1FEA57FE4F208131814281C1
:1002600053817894B901CA010895E82FF894F0E019
:10027000EE0FFF1FEE0FFF1FEA57FE4F1082118295
:10028000128213827894089583E084BD82E085BD54
:1002900016BCEEE6F0E080818160808310928601DA
:1002A00010928701109288011092890110928A01A0
:1002B00010928B0110928C0110928D0110928E0180
:1002C00010928F0110929001109291011092920160
:1002D0001092930110929401109295011092960140
:1002E00010929701109298011092990110929A0120
:1002F00010929B0110929C0110929D0110929E0100
:1003000010929F011092A0011092A1011092A201DF
:100310001092A3011092A4011092A5011092A601BF
:100320001092A7011092A8011092A9011092AA019F
:100330001092AB011092AC011092AD017894089527
:100340001F920F920FB60F9211248F939F93AF932A
:10035000BF934A9B20C08091860190918701A09114
:100360008801B09189018093820190938301A093C9
:100370008401B0938501109286011092870110923A
:100380008801109289011092AA011092AB0110927B
:10039000AC011092AD01BF91AF919F918F910F90E1
:1003A0000FBE0F901F90189581E0809369008DBB60
:1003B0000895681710F4861B0895681B862F08950A
:1003C000282FDB01CA01243028F42AE030E040E085
:1003D00050E02EC1263050F49A01AB01F5E056955D
:1003E000479537952795FA95D1F722C12A3018F409
:1003F0009A01AB0116C1203188F49A01AB01E4E007
:100400005695479537952795EA95D1F776E0B695B5
:10041000A795979587957A95D1F712C02631A8F4BC
:100420009A01AB0164E056954795379527956A95F3
:10043000D1F7F5E0B695A79597958795FA95D1F7F9
:10044000280F391F4A1F5B1FF3C02C3188F49A0113
:10045000AB01E4E05695479537952795EA95D1F796
:1004600075E0B695A795979587957A95D1F75FC072
:10047000203218F49A01AB01BFC0203450F49A0125
:10048000AB0163E056954795379527956A95D1F767
:10049000D0CF203550F49A01AB01F3E05695479543
:1004A00037952795FA95D1F75CC0203688F49A01E4
:1004B000AB01E3E05695479537952795EA95D1F737
:1004C00074E0B695A795979587957A95D1F72FC043
:1004D000203718F49A01AB0178C027FD0AC09A01B1
:1004E000AB0162E056954795379527956A95D1F708
:1004F00038C02E3850F49A01AB01F2E0569547957A
:1005000037952795FA95D1F73CC0203AC8F49A015F
:10051000AB01E2E05695479537952795EA95D1F7D7
:1005200073E0B695A795979587957A95D1F7280F9B
:10053000391F4A1F5B1FB695A7959795879580CF62
:10054000223B38F49A01AB0156954795379527958C
:100550006FC0243B70F49A01AB01569547953795CF
:10056000279574E0B695A795979587957A95D1F7D5
:1005700067CF2C3B70F49A01AB01569547953795A0
:100580002795F3E0B695A79597958795FA95D1F7B6
:1005900057CF243C70F49A01AB0156954795379597
:1005A000279572E0B695A795979587957A95D1F797
:1005B00047CF2A3C90F49A01AB01220F331F441F0E
:1005C000551F280F391F4A1F5B1FA2E056954795FC
:1005D00037952795AA95D1F72BC02E3CA8F49A0100
:1005E000AB01F3E0220F331F441F551FFA95D1F7DB
:1005F000281B390B4A0B5B0BE3E056954795379563
:100600002795EA95D1F714C09A01AB0174E0220F47
:10061000331F441F551F7A95D1F7281B390B4A0BFE
:100620005B0B64E056954795379527956A95D1F70A
:10063000B901CA0108950F931F938B019C014130AA
:1006400049F1423029F4369527951795079522C030
:10065000443041F482E036952795179507958A95A1
:10066000D1F718C0483041F4B3E036952795179577
:100670000795BA95D1F70EC0403141F4A4E0369504
:10068000279517950795AA95D1F704C00E946B0D81
:100690008B019C01B801C9011F910F9108952F9200
:1006A0003F924F925F926F927F928F929F92AF9202
:1006B000BF92CF92DF92EF92FF920F931F93DF933F
:1006C000CF93CDB7DEB7C258D0400FB6F894DEBF97
:1006D0000FBECDBF0E9444015298539A519A84B1E3
:1006E0008F6384B98AB1806C8AB987B1837C87B9FA
:1006F00087B1807C87B988B1807C88B980E8809395
:100700007A0080E280937C0080917A0087608093F9
:100710007A0080917A00806480937A0081E08093EF
:1007200069008DBBCF57DF4F19821882C158D04066
:10073000ED961FAEED97EC961FAEEC97EB961FAEC5
:10074000EB972FE7EA962FAFEA97E9961FAEE99766
:10075000E8962FAFE897E7962FAFE797E6962FAF8B
:10076000E697E5962FAFE597E4962FAFE4973FEF36
:10077000E3963FAFE397E2962FAFE297E1961FAE85
:10078000E197E0961FAEE097AF961FAEAF97AE969B
:100790001FAEAE97AD961FAEAD97AC961FAEAC97A1
:1007A000AB961FAEAB97AA961FAEAA97A9961FAE9F
:1007B000A997A8961FAEA897A7961FAEA797A6962B
:1007C0001FAEA697F0EAAF2EF1E4BF2EC12CD12CBC
:1007D000A5961CAE1DAE1EAE1FAEA597A1961CAE73
:1007E0001DAE1EAE1FAEA1976D961CAE1DAE1EAE09
:1007F0001FAE6D9769961CAE1DAE1EAE1FAE6997FB
:1008000065961CAE1DAE1EAE1FAE659761961CAE02
:100810001DAE1EAE1FAE61972D961CAE1DAE1EAE58
:100820001FAE2D9780ED90E2A0E0B0E029968CAF4E
:100830009DAFAEAFBFAF299728E630E140E050E072
:1008400025962CAF3DAF4EAF5FAF259780EF9AE076
:10085000A0E0B0E021968CAF9DAFAEAFBFAF2197C7
:1008600028E938E040E050E029AF3AAF4BAF5CAF49
:1008700080E996E0A0E0B0E08DAB9EABAFABB8AF47
:1008800028E735E040E050E029AB3AAB4BAB5CAB3E
:100890008AE194E0A0E0B0E08DA79EA7AFA7B8AB37
:1008A0009FEF9CA718A619A61AA61BA61CA21DA2FC
:1008B0001EA21FA22224332421016624772443018F
:1008C000EE24FF2487011BA21AA219A218A21F8ED0
:1008D0001E8E1D8E198E1A8E1B8E1C8E1D8A1E8AD0
:1008E0001F8A188E198A1A8A1B8A1C8A1D861E86E0
:1008F0001F86188A19861A861B861C8618861F82F0
:100900001E821D821C82A2E0AB831A82B1E0B983F1
:10091000CF57DF4FE881F981C158D0403196CF578A
:10092000DF4FF983E883C158D040E536F10508F47C
:100930000EC280917A0084FFFCCF80917A008061A2
:1009400080937A0080917900ED96FFADED97F430B9
:10095000D9F4EB962FADEB97821718F4922F981BD2
:1009600005C0982FEB963FADEB97931B923018F094
:10097000EB968FAFEB97882309F064C0EB961FAE20
:10098000EB974FEF4CA75EC0ED965FADED9755230B
:1009900099F4E9969FADE997891710F4981B05C063
:1009A000982FE996AFADE9979A1B923008F44AC0A8
:1009B000E9968FAFE99746C0ED96BFADED97B3309E
:1009C00099F4EA96EFADEA978E1718F49E2F981BCC
:1009D00005C0982FEA96FFADEA979F1B923090F1E1
:1009E000EA968FAFEA972EC0ED962FADED972130A6
:1009F00099F4EC963FADEC97831718F4932F981B5E
:100A000005C0982FEC964FADEC97941B9230D0F028
:100A1000EC968FAFEC9716C0ED965FADED97523028
:100A200089F4E8969FADE897891710F4981B05C0E4
:100A3000982FE896AFADE8979A1B923018F0E89699
:100A40008FAFE89780917A00806480937A00ED966A
:100A5000BFADED97BF5FED96BFAFED97B63018F025
:100A6000ED961FAEED97ED968FADED97806280937A
:100A70007C00ED96EFADED97EE2309F062C1EC96A8
:100A8000AFADEC97A295A695A77089B190E0E5E08F
:100A900096958795EA95E1F7682F6170E396FFAD2B
:100AA000E397AF1731F4E2962FADE297621709F49E
:100AB0008FC03A2F3F5FE1963FAFE19737703F5FBE
:100AC000E0963FAFE0974A2F4E5F47704F5FAF967B
:100AD0004FAFAF975A2F5D5F57705F5FAE965FAFB6
:100AE000AE978A2F8C5F87708F5FAD968FAFAD9773
:100AF0009A2F9B5F97709F5FAC969FAFAC97BA2F72
:100B0000B95FB770BF5FAB96BFAFAB974D9912C0DF
:100B1000AA964FAFAA97A9965FAFA997A8968FAF4D
:100B2000A897A7969FAFA797A696BFAFA697E1E015
:100B3000E9834EC0E196FFADE197FF0FFF0FE1960D
:100B4000FFAFE197E0962FADE097220F220FE096DE
:100B50002FAFE097AF963FADAF97AA963FAFAA975A
:100B6000432F440F440FAF964FAFAF97AE965FAD94
:100B7000AE97A9965FAFA997852F880F880FAE967D
:100B80008FAFAE97AD969FADAD97A8969FAFA89744
:100B9000B92FBB0FBB0FAD96BFAFAD97AC96EFAD06
:100BA000AC97A796EFAFA797FE2FFF0FFF0FAC965E
:100BB000FFAFAC97AB962FADAB97A6962FAFA6978E
:100BC000322F330F330FAB963FAFAB9741E04983E2
:100BD000E8965FADE897E6968FADE697581741F433
:100BE000EA969FADEA97E596BFADE5979B1711F0A2
:100BF000E1E0E983EB96FFADEB97E4962FADE49748
:100C0000F217A1F02F2F30E0F13858F04FEF50E0FD
:100C1000421B530B9A0120503F4FF901F081F09590
:100C200004C020503F4FF901F081FCA7E9962FAD99
:100C3000E997E7963FADE797231709F464C030E0E2
:100C4000C9018F779070AC01440F551F440F551F99
:100C5000480F591F440F452F441F550B5195842FA2
:100C60008E5F8B83E9969FADE99797FD23C0E7964A
:100C70009FAFE797E896BFADE897E696BFAFE697D8
:100C8000EA96EFADEA97E596EFAFE597EB96FFAD05
:100C9000EB97E496FFAFE497E396AFAFE397E29666
:100CA0006FAFE297CF57DF4F19821882C158D040FB
:100CB0001A824DC028713070B3E035952795BA95EA
:100CC000E1F7822F8F5F8A839B818917E0F0B42F31
:100CD000BF5FBA83E996EFADE997E796EFAFE79785
:100CE000E896FFADE897E696FFAFE697EA962FAD58
:100CF000EA97E5962FAFE597EB963FADEB97E49635
:100D00003FAFE49718C0E9964FADE997E7964FAF2C
:100D1000E797E8965FADE897E6965FAFE697EA96C5
:100D20008FADEA97E5968FAFE597EB969FADEB9782
:100D3000E4969FAFE497E396AFAFE397E2966FAF89
:100D4000E297CF57DF4F19821882C158D0403499AB
:100D500002C01D8E45C0AD8DAA2309F041C028A553
:100D600039A54AA55BA5298F3A8F4B8F5C8F8CA143
:100D70009DA1AEA1BFA18D8B9E8BAF8BB88F298A11
:100D80003A8A4B8A5C8A6D867E868F86988AE98647
:100D9000FA860B871C874C9B28984C9B29984C9B68
:100DA0002A984C9B2B984C9B2C984C9B2D984C9B99
:100DB0005F984C9B08C01BA21AA219A218A21F8EF2
:100DC00091E09D8F08C05E981BA21AA219A218A2DA
:100DD0001F8EA1E0AD8F18861F821E821D821C828D
:100DE0004A9B02C05B9801C05B9AF89420918601EF
:100DF0003091870140918801509189017894D60102
:100E0000C501880F991FAA1FBB1F281739074A075A
:100E10005B0708F01E8E8091820190918301A09162
:100E20008401B09185010097A105B10509F483C043
:100E30004A9B81C0F894A0908201B0908301C09039
:100E40008401D0908501109282011092830110924A
:100E500084011092850110928A0110928B011092E8
:100E60008C0110928D0110928E0110928F011092C0
:100E700090011092910110929201109293011092A0
:100E80009401109295011092960110929701109280
:100E900098011092990110929A0110929B01109260
:100EA0009C0110929D0110929E0110929F01109240
:100EB000A0011092A1011092A2011092A301109220
:100EC000A4011092A5011092A6011092A701109200
:100ED000A8011092A90178944C9B28984C9B2998C2
:100EE0004C9B2A984C9B2B984C9B2C984C9B2D9858
:100EF0004C9B5F984C9B0FC01BA21AA219A218A270
:100F00001F8EB1E0BE8F18861F821E821D821C823A
:100F1000E2E0E98314C05E981BA21AA219A218A2EB
:100F20001F8EF1E0FE8F18861F821E821D821C829A
:100F300022E0298304C03981332309F448C2EA96A8
:100F40008FADEA97B601A5010E94E0017B018C01FB
:100F5000E1964FADE1970E941B0329966CAF7DAFE0
:100F60008EAF9FAF2997C801B701E0964FADE097CC
:100F70000E941B0325966CAF7DAF8EAF9FAF259768
:100F8000C801B701AF964FADAF970E941B032196E2
:100F90006CAF7DAF8EAF9FAF2197C801B701AE9602
:100FA0004FADAE970E941B0369AF7AAF8BAF9CAF7A
:100FB000C801B701AD964FADAD970E941B036DAB55
:100FC0007EAB8FAB98AFC801B701AC964FADAC9775
:100FD0000E941B0369AB7AAB8BAB9CABC801B7011A
:100FE000AB964FADAB970E941B036DA77EA78FA753
:100FF00098ABA5968CAD9DADAEADBFADA5970C974A
:10100000A105B105A8F029962CAD3DAD4EAD5FAD63
:1010100029972A3031054105510550F48AE090E0C6
:10102000A0E0B0E029968CAF9DAFAEAFBFAF2997DF
:10103000A1962CAD3DAD4EAD5FADA1972C303105E5
:1010400041055105A0F025968CAD9DADAEADBFAD6F
:1010500025970A97A105B10550F42AE030E040E059
:1010600050E025962CAF3DAF4EAF5FAF25976D9604
:101070008CAD9DADAEADBFAD6D970C97A105B10523
:10108000A8F021962CAD3DAD4EAD5FAD21972A3035
:1010900031054105510550F48AE090E0A0E0B0E050
:1010A00021968CAF9DAFAEAFBFAF219769962CADA7
:1010B0003DAD4EAD5FAD69972C3031054105510511
:1010C00080F089AD9AADABADBCAD0A97A105B10575
:1010D00040F42AE030E040E050E029AF3AAF4BAFB7
:1010E0005CAF65968CAD9DADAEADBFAD65970C9711
:1010F000A105B10588F02DA93EA94FA958AD2A3008
:1011000031054105510540F48AE090E0A0E0B0E0EF
:101110008DAB9EABAFABB8AF61962CAD3DAD4EADD8
:101120005FAD61972C3031054105510580F089A9EB
:101130009AA9ABA9BCA90A97A105B10540F42AE078
:1011400030E040E050E029AB3AAB4BAB5CAB2D96C6
:101150008CAD9DADAEADBFAD2D970C97A105B10582
:1011600088F02DA53EA54FA558A92A303105410587
:10117000510540F48AE090E0A0E0B0E08DA79EA782
:10118000AFA7B8ABC601B501E1964FADE1970E949C
:101190001B03A5966CAF7DAF8EAF9FAFA597C60121
:1011A000B501E0964FADE0970E941B03A1966CAF8E
:1011B0007DAF8EAF9FAFA197C601B501AF964FAD82
:1011C000AF970E941B036D966CAF7DAF8EAF9FAF44
:1011D0006D97C601B501AE964FADAE970E941B0349
:1011E00069966CAF7DAF8EAF9FAF6997C601B501B1
:1011F000AD964FADAD970E941B0365966CAF7DAF6A
:101200008EAF9FAF6597C601B501AC964FADAC9759
:101210000E941B0361966CAF7DAF8EAF9FAF61974D
:10122000C601B501AB964FADAB970E941B032D963F
:101230006CAF7DAF8EAF9FAF2D97E8969FADE897CF
:10124000923090F418A619A61AA61BA61CA21DA2DD
:101250001EA21FA2222433242101662477244301E5
:10126000EE24FF24870193C0E896AFADE897EA2EFD
:10127000FF2400E010E021966CAD7DAD8EAD9FADFA
:10128000219760957095809590956D962CAD3DADAC
:101290004EAD5FAD6D97620F731F841F951FA80140
:1012A00097010E947E0D272F382F492F552728A7F9
:1012B00039A74AA75BA769AD7AAD8BAD9CAD6095A8
:1012C00070958095909569962CAD3DAD4EAD5FAD16
:1012D0006997620F731F841F951FA80197010E94D1
:1012E0007E0D272F382F492F55272CA33DA34EA322
:1012F0005FA36DA97EA98FA998AD60957095809523
:10130000909565962CAD3DAD4EAD5FAD6597620F86
:10131000731F841F951FA80197010E947E0D272E21
:10132000382E492E552469A97AA98BA99CA96095C4
:1013300070958095909561962CAD3DAD4EAD5FADAD
:101340006197620F731F841F951FA80197010E9468
:101350007E0D672E782E892E99246DA57EA58FA5EA
:1013600098A960957095809590952D962CAD3DAD82
:101370004EAD5FAD2D97620F731F841F951FA8019F
:1013800097010E947E0DE72EF82E092F1127398133
:101390003230E1F488A599A5AAA5BBA5898F9A8FBB
:1013A000AB8FBC8F2CA13DA14EA15FA12D8B3E8B9D
:1013B0004F8B588F298A3A8A4B8A5C8A6D867E8643
:1013C0008F86988AE986FA860B871C8719823E8D5C
:1013D000332311F4349BD5C2F89480918A01909103
:1013E0008B01A0918C01B0918D017894A5962CADC4
:1013F0003DAD4EAD5FADA59782179307A407B50726
:1014000060F0F89410928A0110928B0110928C0176
:1014100010928D0178944C9B2898F89480918E01BD
:1014200090918F01A0919001B09191017894A19633
:101430002CAD3DAD4EAD5FADA19782179307A407CC
:10144000B50760F0F89410928E0110928F011092FF
:1014500090011092910178944C9B2998F894809176
:10146000920190919301A0919401B0919501C3587C
:10147000DF4F88839983AA83BB83CD57D04078946C
:10148000898D9A8DAB8DBC8D6D962CAD3DAD4EADDD
:101490005FAD6D97820F931FA41FB51FC358DF4F19
:1014A000288139814A815B81CD57D040281739077F
:1014B0004A075B0708F454C0F89410929201109206
:1014C0009301109294011092950178943CA5832F7A
:1014D00090E028E030E0AA964FADAA97241B31098E
:1014E00002C0959587952A95E2F70BA002C09595C5
:1014F00087950A94E2F780FF02C04C9B2A985BA173
:101500005F5F5BA3AA968FADAA97581710F01BA236
:1015100018869885AA819A1729F0198E1A8E1B8E23
:101520001C8E0FC028A539A54AA55BA550954095EE
:10153000309521953F4F4F4F5F4F298F3A8F4B8FFB
:101540005C8F38853F5F38874B81341748F088A51A
:1015500099A5AAA5BBA5898F9A8FAB8FBC8F18863A
:10156000F894209196013091970140919801509103
:101570009901C358DF4F288339834A835B83CD5752
:10158000D04078948D899E89AF89B88D69962CADAD
:101590003DAD4EAD5FAD6997820F931FA41FB51F80
:1015A000C358DF4F288139814A815B81CD57D040B4
:1015B000281739074A075B0708F454C0F8941092BB
:1015C00096011092970110929801109299017894C7
:1015D0003CA5832F90E028E030E0A9964FADA99775
:1015E000241B310902C0959587952A95E2F70AA038
:1015F00002C0959587950A94E2F780FF02C04C9B44
:101600002B985AA15F5F5AA3A9968FADA997581737
:1016100010F01AA21F829F81AA819A1729F01D8AB1
:101620001E8A1F8A188E0FC02CA13DA14EA15FA15A
:1016300050954095309521953F4F4F4F5F4F2D8BE3
:101640003E8B4F8B588F3F813F5F3F834B813417D9
:1016500048F08CA19DA1AEA1BFA18D8B9E8BAF8BBD
:10166000B88F1F82F89420919A0130919B0140918C
:101670009C0150919D01C358DF4F288339834A83D1
:101680005B83CD57D040789489899A89AB89BC898E
:1016900065962CAD3DAD4EAD5FAD6597820F931F46
:1016A000A41FB51FC358DF4F288139814A815B8150
:1016B000CD57D040281739074A075B0708F44CC0BC
:1016C000F89410929A0110929B0110929C01109232
:1016D0009D0178943CA5832F90E028E030E0A89607
:1016E0004FADA897241B310902C0959587952A957F
:1016F000E2F709A002C0959587950A94E2F780FF6A
:1017000002C04C9B2C9859A15F5F59A3A8968FAD3E
:10171000A897581710F019A21E829E81AA819A17C5
:1017200029F0198A1A8A1B8A1C8A0BC022273327A0
:10173000A9012219330944095509298B3A8B4B8B8E
:101740005C8B3E813F5F3E834B81341728F0298AB2
:101750003A8A4B8A5C8A1E82F89480919E0190910D
:101760009F01A091A001B091A101C358DF4F8883D0
:101770009983AA83BB83CD57D04078948D859E856D
:10178000AF85B88961962CAD3DAD4EAD5FAD61972B
:10179000820F931FA41FB51FC358DF4F28813981C3
:1017A0004A815B81CD57D040281739074A075B072C
:1017B00008F44CC0F89410929E0110929F01109270
:1017C000A0011092A10178943CA5832F90E028E01D
:1017D00030E0A7964FADA797241B310902C095951D
:1017E00087952A95E2F708A002C0959587950A94F7
:1017F000E2F780FF02C04C9B2D9858A15F5F58A371
:10180000A7968FADA797581710F018A21D829D813B
:10181000AA819A1729F01D861E861F86188A0BC07A
:1018200022273327A90126193709480959092D8785
:101830003E874F87588B3D813F5F3D834B813417F7
:1018400028F06D867E868F86988A1D82F894809116
:10185000A2019091A301A091A401B091A501C35848
:10186000DF4F88839983AA83BB83CD57D040789478
:1018700089859A85AB85BC852D962CAD3DAD4EAD49
:101880005FAD2D97820F931FA41FB51FC358DF4F65
:10189000288139814A815B81CD57D040281739078B
:1018A0004A075B0708F44CC0F8941092A20110920A
:1018B000A3011092A4011092A50178943CA5832F56
:1018C00090E028E030E0A6964FADA697241B3109A2
:1018D00002C0959587952A95E2F70F8C02C09595E1
:1018E00087950A94E2F780FF02C04C9B5F985F8D5A
:1018F0005F5F5F8FA6968FADA697581710F01F8E6B
:101900001C829C81AA819A1729F019861A861B8647
:101910001C860BC022273327A9012E193F09400B33
:10192000510B29873A874B875C873C813F5F3C831B
:101930004B81341728F0E986FA860B871C871C82B6
:10194000F8948091A6019091A701A091A801B0916F
:10195000A90178942D962CAD3DAD4EAD5FAD2D9780
:1019600082179307A407B50760F0F8941092A601B8
:101970001092A7011092A8011092A90178944C9B93
:101980005E98F89480918A0190918B01A0918C01CE
:10199000B0918D01789429962CAD3DAD4EAD5FADE3
:1019A000299782179307A407B50708F0289AF89497
:1019B00080918E0190918F01A0919001B091910141
:1019C000789425962CAD3DAD4EAD5FAD2597821731
:1019D0009307A407B50708F0299AF894809192011B
:1019E00090919301A0919401B091950178942196E2
:1019F0002CAD3DAD4EAD5FAD219782179307A40787
:101A0000B50708F02A9AF894809196019091970171
:101A1000A0919801B0919901789429AD3AAD4BAD60
:101A20005CAD82179307A407B50708F02B9AF894CA
:101A300080919A0190919B01A0919C01B0919D0190
:101A400078942DA93EA94FA958AD82179307A407F2
:101A5000B50708F02C9AF89480919E0190919F010F
:101A6000A091A001B091A101789429A93AA94BA90C
:101A70005CA982179307A407B50708F02D9AF8947C
:101A80008091A2019091A301A091A401B091A50120
:101A900078942DA53EA54FA558A982179307A407B2
:101AA000B50708F05F9AF8948091A6019091A7017C
:101AB000A091A801B091A90178942DA53EA54FA5AC
:101AC00058A982179307A407B50710F40C9488044B
:101AD0005E9A0C9488041F932F93222710E2660FBE
:101AE000771F881F991F221F10F0241710F0241B46
:101AF00061601A95A1F72F911F910895629FD001FF
:101B0000739FF001829FE00DF11D649FE00DF11DB8
:101B1000929FF00D839FF00D749FF00D659FF00D67
:101B20009927729FB00DE11DF91F639FB00DE11D54
:0E1B3000F91FBD01CF0111240895F894FFCFD5
:101B3E00FFFEFDFBF7EFDFBF7F3F9FCFE7F3F9FC23
:101B4E00FAF5EBD7AF5F6FB7DBEDF6EEDDBB777B6C
:101B5E00BDDEBE7D7E3E5E6E767A7CBCBAB6AE9E35
:101B6E009DADB5B9D9D5CDCBD3E3C7E3F1F81F8F72
:101B7E00D3E9F4ECB367DCF0E8D8B878746C5C3C6D
:101B8E003A362E1E1D1B170F1B3363C3C6CC66635E
:101B9E00C6C3C5C9D1D2D46A352D5AB4AC562B4B57
:101BAE0096A653939555AA55AA55AA55AA55AA5520
:021BBE00FF0026
:00000001FF
