:100000000C9434000C94A0010C9451000C945100F9
:100010000C9451000C9451000C9451000C9451001C
:100020000C9451000C9451000C9451000C9451000C
:100030000C9451000C9451000C9451000C945100FC
:100040000C9453000C9451000C9451000C945100EA
:100050000C9451000C9451000C9451000C945100DC
:100060000C9451000C94510011241FBECFEFD4E02A
:10007000DEBFCDBF11E0A0E0B1E0E0E6FBE102C0F1
:1000800005900D92A238B107D9F711E0A2E8B1E0CE
:1000900001C01D92AE3AB107E1F70E944F030C94E4
:1000A000AE0D0C9400001F920F920FB60F92112408
:1000B0008F939F93AF93BF93809186019091870117
:1000C000A0918801B09189010196A11DB11D809375
:1000D000860190938701A0938801B0938901809154
:1000E0008A0190918B01A0918C01B0918D010196B4
:1000F000A11DB11D80938A0190938B01A0938C0167
:10010000B0938D0180918E0190918F01A09190010B
:10011000B09191010196A11DB11D80938E01909324
:100120008F01A0939001B0939101809192019091E1
:100130009301A0919401B09195010196A11DB11D6B
:100140008093920190939301A0939401B0939501B1
:100150008091960190919701A0919801B091990199
:100160000196A11DB11D8093960190939701A093D4
:100170009801B093990180919A0190919B01A0916F
:100180009C01B0919D010196A11DB11D80939A0122
:1001900090939B01A0939C01B0939D0180919E013F
:1001A00090919F01A091A001B091A1010196A11D84
:1001B000B11D80939E0190939F01A093A001B093E5
:1001C000A1018091A2019091A301A091A401B091FD
:1001D000A5010196A11DB11D8093A2019093A301D9
:1001E000A093A401B093A5018091A6019091A701CD
:1001F000A091A801B091A9010196A11DB11D809304
:10020000A6019093A701A093A801B093A9018091A2
:10021000AA019091AB01A091AC01B091AD01019602
:10022000A11DB11D8093AA019093AB01A093AC01D5
:10023000B093AD0116BCBF91AF919F918F910F907C
:100240000FBE0F901F901895E82FF894F0E0EE0F76
:10025000FF1FEE0FFF1FEA57FE4F208131814281C1
:1002600053817894B901CA010895E82FF894F0E019
:10027000EE0FFF1FEE0FFF1FEA57FE4F1082118295
:10028000128213827894089583E084BD82E085BD54
:1002900016BCEEE6F0E080818160808310928601DA
:1002A00010928701109288011092890110928A01A0
:1002B00010928B0110928C0110928D0110928E0180
:1002C00010928F0110929001109291011092920160
:1002D0001092930110929401109295011092960140
:1002E00010929701109298011092990110929A0120
:1002F00010929B0110929C0110929D0110929E0100
:1003000010929F011092A0011092A1011092A201DF
:100310001092A3011092A4011092A5011092A601BF
:100320001092A7011092A8011092A9011092AA019F
:100330001092AB011092AC011092AD017894089527
:100340001F920F920FB60F9211248F939F93AF932A
:10035000BF934A9B20C08091860190918701A09114
:100360008801B09189018093820190938301A093C9
:100370008401B0938501109286011092870110923A
:100380008801109289011092AA011092AB0110927B
:10039000AC011092AD01BF91AF919F918F910F90E1
:1003A0000FBE0F901F90189581E0809369008DBB60
:1003B0000895681710F4861B0895681B862F08950A
:1003C000282FDB01CA01243028F42AE030E040E085
:1003D00050E02EC1263050F49A01AB01F5E056955D
:1003E000479537952795FA95D1F722C12A3018F409
:1003F0009A01AB0116C1203188F49A01AB01E4E007
:100400005695479537952795EA95D1F776E0B695B5
:10041000A795979587957A95D1F712C02631A8F4BC
:100420009A01AB0164E056954795379527956A95F3
:10043000D1F7F5E0B695A79597958795FA95D1F7F9
:10044000280F391F4A1F5B1FF3C02C3188F49A0113
:10045000AB01E4E05695479537952795EA95D1F796
:1004600075E0B695A795979587957A95D1F75FC072
:10047000203218F49A01AB01BFC0203450F49A0125
:10048000AB0163E056954795379527956A95D1F767
:10049000D0CF203550F49A01AB01F3E05695479543
:1004A00037952795FA95D1F75CC0203688F49A01E4
:1004B000AB01E3E05695479537952795EA95D1F737
:1004C00074E0B695A795979587957A95D1F72FC043
:1004D000203718F49A01AB0178C027FD0AC09A01B1
:1004E000AB0162E056954795379527956A95D1F708
:1004F00038C02E3850F49A01AB01F2E0569547957A
:1005000037952795FA95D1F73CC0203AC8F49A015F
:10051000AB01E2E05695479537952795EA95D1F7D7
:1005200073E0B695A795979587957A95D1F7280F9B
:10053000391F4A1F5B1FB695A7959795879580CF62
:10054000223B38F49A01AB0156954795379527958C
:100550006FC0243B70F49A01AB01569547953795CF
:10056000279574E0B695A795979587957A95D1F7D5
:1005700067CF2C3B70F49A01AB01569547953795A0
:100580002795F3E0B695A79597958795FA95D1F7B6
:1005900057CF243C70F49A01AB0156954795379597
:1005A000279572E0B695A795979587957A95D1F797
:1005B00047CF2A3C90F49A01AB01220F331F441F0E
:1005C000551F280F391F4A1F5B1FA2E056954795FC
:1005D00037952795AA95D1F72BC02E3CA8F49A0100
:1005E000AB01F3E0220F331F441F551FFA95D1F7DB
:1005F000281B390B4A0B5B0BE3E056954795379563
:100600002795EA95D1F714C09A01AB0174E0220F47
:10061000331F441F551F7A95D1F7281B390B4A0BFE
:100620005B0B64E056954795379527956A95D1F70A
:10063000B901CA0108950F931F938B019C014130AA
:1006400049F1423029F4369527951795079522C030
:10065000443041F482E036952795179507958A95A1
:10066000D1F718C0483041F4B3E036952795179577
:100670000795BA95D1F70EC0403141F4A4E0369504
:10068000279517950795AA95D1F704C00E947C0D70
:100690008B019C01B801C9011F910F9108952F9200
:1006A0003F924F925F926F927F928F929F92AF9202
:1006B000BF92CF92DF92EF92FF920F931F93DF933F
:1006C000CF93CDB7DEB7C158D0400FB6F894DEBF98
:1006D0000FBECDBF0E9444015298539A519A84B1E3
:1006E0008F6384B98AB1806C8AB987B1837C87B9FA
:1006F00087B1807C87B988B1807C88B980E8809395
:100700007A0080E280937C0080917A0087608093F9
:100710007A0080917A00806480937A0081E08093EF
:1007200069008DBBC058DF4F19821882C058D04075
:10073000EC961FAEEC97EB961FAEEB97EA961FAECA
:10074000EA972FE7E9962FAFE997E8961FAEE8976B
:10075000E7962FAFE797E6962FAFE697E5962FAF90
:10076000E597E4962FAFE497E3962FAFE3973FEF3B
:10077000E2963FAFE297E1962FAFE197E0961FAE8A
:10078000E097AF961FAEAF97AE961FAEAE97AD9601
:100790001FAEAD97AC961FAEAC97AB961FAEAB97A6
:1007A000AA961FAEAA97A9961FAEA997A8961FAEA4
:1007B000A897A7961FAEA797A6961FAEA697A59631
:1007C0001FAEA597F0EAAF2EF1E4BF2EC12CD12CBD
:1007D000A4961CAE1DAE1EAE1FAEA497A0961CAE76
:1007E0001DAE1EAE1FAEA0976C961CAE1DAE1EAE0B
:1007F0001FAE6C9768961CAE1DAE1EAE1FAE6897FE
:1008000064961CAE1DAE1EAE1FAE649760961CAE05
:100810001DAE1EAE1FAE60972C961CAE1DAE1EAE5A
:100820001FAE2C9780ED90E2A0E0B0E028968CAF50
:100830009DAFAEAFBFAF289728E630E140E050E073
:1008400024962CAF3DAF4EAF5FAF249780EF9AE078
:10085000A0E0B0E08CAF9DAFAEAFBFAF28E938E00D
:1008600040E050E028AF39AF4AAF5BAF80E996E097
:10087000A0E0B0E08CAB9DABAEABBFAB28E735E002
:1008800040E050E028AB39AB4AAB5BAB8AE194E087
:10089000A0E0B0E08CA79DA7AEA7BFA79FEF9BA746
:1008A0001FA218A619A61AA61BA21CA21DA21EA250
:1008B000222433242101662477244301EE24FF24DB
:1008C00087011AA219A218A21F8E1E8E1D8E198EC4
:1008D0001A8E1B8E1C8E1D8A1E8A1F8A188E198ADC
:1008E0001A8A1B8A1C8A1D861E861F86188A1986EC
:1008F0001A861B861C8618861F821E821D821C82F9
:10090000A2E0AB831A82B1E0B983C058DF4FE8811F
:10091000F981C058D0403196C058DF4FF983E88341
:10092000C058D040E536F10508F40EC280917A0037
:1009300084FFFCCF80917A00806180937A0080915F
:100940007900EC96FFADEC97F430D9F4EA962FAD30
:10095000EA97821718F4922F981B05C0982FEA96F1
:100960003FADEA97931B923018F0EA968FAFEA9763
:10097000882309F064C0EA961FAEEA974FEF4BA7B1
:100980005EC0EC965FADEC97552399F4E8969FAD69
:10099000E897891710F4981B05C0982FE896AFAD1B
:1009A000E8979A1B923008F44AC0E8968FAFE89710
:1009B00046C0EC96BFADEC97B33099F4E996EFAD35
:1009C000E9978E1718F49E2F981B05C0982FE9966B
:1009D000FFADE9979F1B923090F1E9968FAFE997B1
:1009E0002EC0EC962FADEC97213099F4EB963FADED
:1009F000EB97831718F4932F981B05C0982FEB964D
:100A00004FADEB97941B9230D0F0EB968FAFEB97F6
:100A100016C0EC965FADEC97523089F4E7969FAD27
:100A2000E797891710F4981B05C0982FE796AFAD8C
:100A3000E7979A1B923018F0E7968FAFE79780916F
:100A40007A00806480937A00EC96BFADEC97BF5F2C
:100A5000EC96BFAFEC97B63018F0EC961FAEEC9763
:100A6000EC968FADEC97806280937C00EC96EFADB6
:100A7000EC97EE2309F062C1EB96AFADEB97A29530
:100A8000A695A77089B190E0E5E096958795EA95DF
:100A9000E1F7682F6170E296FFADE297AF1731F48E
:100AA000E1962FADE197621709F48FC03A2F3F5FAF
:100AB000E0963FAFE09737703F5FAF963FAFAF979D
:100AC0004A2F4E5F47704F5FAE964FAFAE975A2F8B
:100AD0005D5F57705F5FAD965FAFAD978A2F8C5F9C
:100AE00087708F5FAC968FAFAC979A2F9B5F977094
:100AF0009F5FAB969FAFAB97BA2FB95FB770BF5FE1
:100B0000AA96BFAFAA974D9912C0A9964FAFA997C1
:100B1000A8965FAFA897A7968FAFA797A6969FAF07
:100B2000A697A596BFAFA597E1E0E9834EC0E096F2
:100B3000FFADE097FF0FFF0FE096FFAFE097AF9696
:100B40002FADAF97220F220FAF962FAFAF97AE9674
:100B50003FADAE97A9963FAFA997432F440F440FDF
:100B6000AE964FAFAE97AD965FADAD97A8965FAF1F
:100B7000A897852F880F880FAD968FAFAD97AC964D
:100B80009FADAC97A7969FAFA797B92FBB0FBB0F91
:100B9000AC96BFAFAC97AB96EFADAB97A696EFAF69
:100BA000A697FE2FFF0FFF0FAB96FFAFAB97AA964E
:100BB0002FADAA97A5962FAFA597322F330F330FDE
:100BC000AA963FAFAA9741E04983E7965FADE797C2
:100BD000E5968FADE597581741F4E9969FADE997F3
:100BE000E496BFADE4979B1711F0E1E0E983EA9644
:100BF000FFADEA97E3962FADE397F217A1F02F2F01
:100C000030E0F13858F04FEF50E0421B530B9A019F
:100C100020503F4FF901F081F09504C020503F4F24
:100C2000F901F081FBA7E8962FADE897E6963FAD76
:100C3000E697231709F464C030E0C9018F779070FC
:100C4000AC01440F551F440F551F480F591F440F47
:100C5000452F441F550B5195842F8E5F8B83E8964B
:100C60009FADE89797FD23C0E6969FAFE697E7967E
:100C7000BFADE797E596BFAFE597E996EFADE9978A
:100C8000E496EFAFE497EA96FFADEA97E396FFAFFD
:100C9000E397E296AFAFE297E1966FAFE197C05866
:100CA000DF4F19821882C058D0401A824DC0287177
:100CB0003070F3E035952795FA95E1F7822F8F5F35
:100CC0008A839B818917E0F0B42FBF5FBA83E896CF
:100CD000EFADE897E696EFAFE697E796FFADE797BB
:100CE000E596FFAFE597E9962FADE997E4962FAF2C
:100CF000E497EA963FADEA97E3963FAFE39718C0D3
:100D0000E8964FADE897E6964FAFE697E7965FAD6A
:100D1000E797E5965FAFE597E9968FADE997E4969B
:100D20008FAFE497EA969FADEA97E3969FAFE3977C
:100D3000E296AFAFE297E1966FAFE197C058DF4F11
:100D400019821882C058D040349902C01D8E45C007
:100D5000AD8DAA2309F041C02FA138A549A55AA5F8
:100D6000298F3A8F4B8F5C8F8BA19CA1ADA1BEA127
:100D70008D8B9E8BAF8BB88F298A3A8A4B8A5C8A7F
:100D80006D867E868F86988AE986FA860B871C8711
:100D90004C9B28984C9B29984C9B2A984C9B2B98B1
:100DA0004C9B2C984C9B2D984C9B5F984C9B08C05F
:100DB0001AA219A218A21F8E1E8E91E09D8F08C044
:100DC0005E981AA219A218A21F8E1E8EA1E0AD8FE6
:100DD00018861F821E821D821C824A9B02C05B985D
:100DE00001C05B9AF8948091AA019091AB01A09107
:100DF000AC01B091AD0178948A159B05AC05BD0599
:100E000078F48091820190918301A0918401B09146
:100E100085010097A105B10509F4ADC04A9BABC09F
:100E2000F8948091820190918301A0918401B09106
:100E300085010097A105B10511F58091AA01909156
:100E4000AB01A091AC01B091AD01A816B906CA06DC
:100E5000DB0628F58091AA019091AB01A091AC012D
:100E6000B091AD018A199B09AC09BD098093AA0113
:100E70009093AB01A093AC01B093AD0110C0A090D2
:100E80008201B0908301C0908401D09085011092BE
:100E900082011092830110928401109285011092B8
:100EA0008A0110928B0110928C0110928D01109288
:100EB0008E0110928F011092900110929101109268
:100EC0009201109293011092940110929501109248
:100ED0009601109297011092980110929901109228
:100EE0009A0110929B0110929C0110929D01109208
:100EF0009E0110929F011092A0011092A1011092E8
:100F0000A2011092A3011092A4011092A5011092C7
:100F1000A6011092A7011092A8011092A90178943D
:100F20004C9B28984C9B29984C9B2A984C9B2B981F
:100F30004C9B2C984C9B2D984C9B5F984C9B0DC0C8
:100F40001AA219A218A21F8E1E8E18861F821E8238
:100F50001D821C82B2E0B98312C05E981AA219A247
:100F600018A21F8E1E8E18861F821E821D821C8252
:100F7000E2E0E98304C0F981FF2309F440C2E99665
:100F80008FADE997B601A5010E94E0017B018C01BC
:100F9000E0964FADE0970E941B0328966CAF7DAFA3
:100FA0008EAF9FAF2897C801B701AF964FADAF97EF
:100FB0000E941B0324966CAF7DAF8EAF9FAF24972A
:100FC000C801B701AE964FADAE970E941B036CAF40
:100FD0007DAF8EAF9FAFC801B701AD964FADAD9756
:100FE0000E941B0368AF79AF8AAF9BAFC801B701FE
:100FF000AC964FADAC970E941B036CAB7DAB8EAB38
:101000009FABC801B701AB964FADAB970E941B03D6
:1010100068AB79AB8AAB9BABC801B701AA964FAD61
:10102000AA970E941B036CA77DA78EA79FA7A496D3
:101030002CAD3DAD4EAD5FADA4972C3031054105D3
:101040005105A0F028968CAD9DADAEADBFAD2897F3
:101050000A97A105B10550F42AE030E040E050E0E5
:1010600028962CAF3DAF4EAF5FAF2897A0968CADC2
:101070009DADAEADBFADA0970C97A105B105A8F091
:1010800024962CAD3DAD4EAD5FAD24972A30310591
:101090004105510550F48AE090E0A0E0B0E02496CC
:1010A0008CAF9DAFAEAFBFAF24976C962CAD3DAD6E
:1010B0004EAD5FAD6C972C3031054105510580F088
:1010C0008CAD9DADAEADBFAD0A97A105B10540F4A5
:1010D0002AE030E040E050E02CAF3DAF4EAF5FAFD4
:1010E00068968CAD9DADAEADBFAD68970C97A10570
:1010F000B10588F028AD39AD4AAD5BAD2A30310578
:101100004105510540F48AE090E0A0E0B0E088AFEE
:1011100099AFAAAFBBAF64962CAD3DAD4EAD5FAD00
:1011200064972C3031054105510580F08CA99DA9AB
:10113000AEA9BFA90A97A105B10540F42AE030E0A5
:1011400040E050E02CAB3DAB4EAB5FAB60968CAD5E
:101150009DADAEADBFAD60970C97A105B10588F010
:1011600028A939A94AA95BA92A30310541055105A9
:1011700040F48AE090E0A0E0B0E088AB99ABAAAB85
:10118000BBAB2C962CAD3DAD4EAD5FAD2C972C304E
:1011900031054105510580F08CA59DA5AEA5BFA5E3
:1011A0000A97A105B10540F42AE030E040E050E0A4
:1011B0002CA73DA74EA75FA7C601B501E0964FAD8E
:1011C000E0970E941B03A4966CAF7DAF8EAF9FAFDC
:1011D000A497C601B501AF964FADAF970E941B0310
:1011E000A0966CAF7DAF8EAF9FAFA097C601B50143
:1011F000AE964FADAE970E941B036C966CAF7DAF61
:101200008EAF9FAF6C97C601B501AD964FADAD9750
:101210000E941B0368966CAF7DAF8EAF9FAF68973F
:10122000C601B501AC964FADAC970E941B03649606
:101230006CAF7DAF8EAF9FAF6497C601B501AB9623
:101240004FADAB970E941B0360966CAF7DAF8EAF26
:101250009FAF6097C601B501AA964FADAA970E94AD
:101260001B032C966CAF7DAF8EAF9FAF2C97E7968C
:101270003FADE797323090F41FA218A619A61AA620
:101280001BA21CA21DA21EA222243324210166241B
:1012900077244301EE24FF24870191C0E7964FADE8
:1012A000E797E42EFF2400E010E06CAD7DAD8EAD3D
:1012B0009FAD60957095809590956C962CAD3DADE9
:1012C0004EAD5FAD6C97620F731F841F951FA80111
:1012D00097010E948F0D272F382F492F55272FA3B5
:1012E00038A749A75AA768AD79AD8AAD9BAD60957F
:1012F00070958095909568962CAD3DAD4EAD5FADE7
:101300006897620F731F841F951FA80197010E94A1
:101310008F0D272F382F492F55272BA33CA34DA3E3
:101320005EA36CA97DA98EA99FA9609570958095F3
:10133000909564962CAD3DAD4EAD5FAD6497620F58
:10134000731F841F951FA80197010E948F0D272EE0
:10135000382E492E552468A979A98AA99BA9609598
:1013600070958095909560962CAD3DAD4EAD5FAD7E
:101370006097620F731F841F951FA80197010E9439
:101380008F0D672E782E892E99246CA57DA58EA5AC
:101390009FA560957095809590952C962CAD3DAD50
:1013A0004EAD5FAD2C97620F731F841F951FA80170
:1013B00097010E948F0DE72EF82E092F11273981F2
:1013C0003230E1F48FA198A5A9A5BAA5898F9A8F8B
:1013D000AB8FBC8F2BA13CA14DA15EA12D8B3E8B71
:1013E0004F8B588F298A3A8A4B8A5C8A6D867E8613
:1013F0008F86988AE986FA860B871C871982F8946B
:1014000080918A0190918B01A0918C01B0918D0106
:101410007894A4962CAD3DAD4EAD5FADA4978217E8
:101420009307A407B50760F0F89410928A01109210
:101430008B0110928C0110928D0178944C9B28980E
:10144000F89480918E0190918F01A0919001B091BC
:1014500091017894A0962CAD3DAD4EAD5FADA097B7
:1014600082179307A407B50760F0F89410928E01D5
:1014700010928F01109290011092910178944C9BE0
:101480002998F8948091920190919301A0919401F0
:10149000B0919501C458DF4F88839983AA83BB8399
:1014A000CC57D0407894898D9A8DAB8DBC8D6C963D
:1014B0002CAD3DAD4EAD5FAD6C97820F931FA41F59
:1014C000B51FC458DF4F288139814A815B81CC57D1
:1014D000D040281739074A075B0708F454C0F8942E
:1014E0001092920110929301109294011092950122
:1014F00078943BA5832F90E028E030E0A9964FAD8B
:10150000A997241B310902C0959587952A95E2F782
:101510000AA002C0959587950A94E2F780FF02C061
:101520004C9B2A985AA15F5F5AA3A9968FADA997A1
:10153000581710F01AA218869885AA819A1729F0D0
:10154000198E1A8E1B8E1C8E0FC02FA138A549A58F
:101550005AA550954095309521953F4F4F4F5F4F7D
:10156000298F3A8F4B8F5C8F38853F5F38874B814F
:10157000341748F08FA198A5A9A5BAA5898F9A8F8D
:10158000AB8FBC8F1886F89420919601309197010B
:101590004091980150919901C458DF4F28833983B5
:1015A0004A835B83CC57D04078948D899E89AF89DC
:1015B000B88D68962CAD3DAD4EAD5FAD6897820F8E
:1015C000931FA41FB51FC458DF4F288139814A815A
:1015D0005B81CC57D040281739074A075B0708F4CE
:1015E00054C0F894109296011092970110929801AD
:1015F0001092990178943BA5832F90E028E030E089
:10160000A8964FADA897241B310902C095958795E0
:101610002A95E2F709A002C0959587950A94E2F70A
:1016200080FF02C04C9B2B9859A15F5F59A3A896DD
:101630008FADA897581710F019A21F829F81AA8119
:101640009A1729F01D8A1E8A1F8A188E0FC02BA197
:101650003CA14DA15EA150954095309521953F4FFD
:101660004F4F5F4F2D8B3E8B4F8B588F3F813F5F8E
:101670003F834B81341748F08BA19CA1ADA1BEA143
:101680008D8B9E8BAF8BB88F1F82F89420919A011F
:1016900030919B0140919C0150919D01C458DF4FB6
:1016A000288339834A835B83CC57D04078948989D7
:1016B0009A89AB89BC8964962CAD3DAD4EAD5FADCA
:1016C0006497820F931FA41FB51FC458DF4F288152
:1016D00039814A815B81CC57D040281739074A07A6
:1016E0005B0708F44CC0F89410929A0110929B0189
:1016F00010929C0110929D0178943BA5832F90E05D
:1017000028E030E0A7964FADA797241B310902C00F
:10171000959587952A95E2F708A002C0959587953B
:101720000A94E2F780FF02C04C9B2C9858A15F5F9F
:1017300058A3A7968FADA797581710F018A21E822E
:101740009E81AA819A1729F0198A1A8A1B8A1C8AF3
:101750000BC022273327A90122193309440955094F
:10176000298B3A8B4B8B5C8B3E813F5F3E834B8159
:10177000341728F0298A3A8A4B8A5C8A1E82F894A8
:1017800080919E0190919F01A091A001B091A10133
:10179000C458DF4F88839983AA83BB83CC57D0403A
:1017A00078948D859E85AF85B88960962CAD3DADCA
:1017B0004EAD5FAD6097820F931FA41FB51FC45835
:1017C000DF4F288139814A815B81CC57D04028176F
:1017D00039074A075B0708F44CC0F89410929E0141
:1017E00010929F011092A0011092A10178943BA544
:1017F000832F90E028E030E0A6964FADA697241BFB
:10180000310902C0959587952A95E2F70F8C02C0A1
:10181000959587950A94E2F780FF02C04C9B2D981E
:101820005F8D5F5F5F8FA6968FADA697581710F0FC
:101830001F8E1D829D81AA819A1729F01D861E8602
:101840001F86188A0BC022273327A90126193709BA
:10185000480959092D873E874F87588B3D813F5F47
:101860003D834B81341728F06D867E868F86988A5B
:101870001D82F8948091A2019091A301A091A401EE
:10188000B091A501C458DF4F88839983AA83BB8395
:10189000CC57D040789489859A85AB85BC852C96A9
:1018A0002CAD3DAD4EAD5FAD2C97820F931FA41FA5
:1018B000B51FC458DF4F288139814A815B81CC57DD
:1018C000D040281739074A075B0708F44CC0F89442
:1018D0001092A2011092A3011092A4011092A501EE
:1018E00078943BA5832F90E028E030E0A5964FAD9B
:1018F000A597241B310902C0959587952A95E2F793
:101900000E8C02C0959587950A94E2F780FF02C07D
:101910004C9B5F985E8D5F5F5E8FA5968FADA597A0
:10192000581710F01E8E1C829C81AA819A1729F0EC
:1019300019861A861B861C860BC022273327A9010D
:101940002E193F09400B510B29873A874B875C873B
:101950003C813F5F3C834B81341728F0E986FA864F
:101960000B871C871C82F8948091A6019091A70197
:10197000A091A801B091A90178942C962CAD3DAD11
:101980004EAD5FAD2C9782179307A407B50760F0A3
:10199000F8941092A6011092A7011092A80110923B
:1019A000A90178944C9B5E98F89480918A0190915B
:1019B0008B01A0918C01B0918D01789428962CAD6B
:1019C0003DAD4EAD5FAD289782179307A407B507CD
:1019D00008F0289AF89480918E0190918F01A0913F
:1019E0009001B0919101789424962CAD3DAD4EAD0F
:1019F0005FAD249782179307A407B50708F0299ACB
:101A0000F8948091920190919301A0919401B091EA
:101A1000950178942CAD3DAD4EAD5FAD8217930727
:101A2000A407B50708F02A9AF8948091960190913E
:101A30009701A0919801B0919901789428AD39ADA2
:101A40004AAD5BAD82179307A407B50708F02B9A40
:101A5000F89480919A0190919B01A0919C01B09182
:101A60009D0178942CA93DA94EA95FA982179307DF
:101A7000A407B50708F02C9AF89480919E019091E4
:101A80009F01A091A001B091A101789428A939A942
:101A90004AA95BA982179307A407B50708F02D9AF6
:101AA000F8948091A2019091A301A091A401B0911A
:101AB000A50178942CA53DA54EA55FA58217930797
:101AC000A407B50708F05F9AF8948091A601909159
:101AD000A701A091A801B091A90178942CA53DA5DA
:101AE0004EA55FA582179307A407B50710F40C94C1
:101AF00085045E9A0C9485041F932F93222710E28D
:101B0000660F771F881F991F221F10F0241710F0EF
:101B1000241B61601A95A1F72F911F910895629F70
:101B2000D001739FF001829FE00DF11D649FE00DD5
:101B3000F11D929FF00D839FF00D749FF00D659F36
:101B4000F00D9927729FB00DE11DF91F639FB00D35
:101B5000E11DF91FBD01CF0111240895F894FFCFB5
:101B6000FFFEFDFBF7EFDFBF7F3F9FCFE7F3F9FC01
:101B7000FAF5EBD7AF5F6FB7DBEDF6EEDDBB777B4A
:101B8000BDDEBE7D7E3E5E6E767A7CBCBAB6AE9E13
:101B90009DADB5B9D9D5CDCBD3E3C7E3F1F81F8F50
:101BA000D3E9F4ECB367DCF0E8D8B878746C5C3C4B
:101BB0003A362E1E1D1B170F1B3363C3C6CC66633C
:101BC000C6C3C5C9D1D2D46A352D5AB4AC562B4B35
:101BD00096A653939555AA55AA55AA55AA55AA55FE
:021BE000FF0004
:00000001FF
