:100000000C9434000C9462010C9451000C94510037
:100010000C9451000C9451000C9451000C9451001C
:100020000C9451000C9451000C9451000C9451000C
:100030000C9451000C9451000C9451000C945100FC
:100040000C9453000C9451000C9451000C945100EA
:100050000C9451000C9451000C9451000C945100DC
:100060000C9451000C94510011241FBECFEFD4E02A
:10007000DEBFCDBF11E0A0E0B1E0E6EFF8E102C0E5
:1000800005900D92A238B107D9F721E0A2E8B1E0BE
:1000900001C01D92AE3AB207E1F70E942F030C9403
:1000A000790C0C9400001F920F920FB60F9211243E
:1000B0008F939F93AF93BF93EF93FF93E6E8F1E0A5
:1000C00080819181A281B3810196A11DB11D8083A0
:1000D0009183A283B383EAE8F1E080819181A281D8
:1000E000B3810196A11DB11D80839183A283B38347
:1000F000EEE8F1E080819181A281B3810196A11D9A
:10010000B11D80839183A283B383E2E9F1E0808112
:100110009181A281B3810196A11DB11D808391833C
:10012000A283B383E6E9F1E080819181A281B3816A
:100130000196A11DB11D80839183A283B383EAE957
:10014000F1E080819181A281B3810196A11DB11D51
:1001500080839183A283B383EEE9F1E08081918172
:10016000A281B3810196A11DB11D80839183A283D9
:10017000B383E2EAF1E080819181A281B3810196AB
:10018000A11DB11D80839183A283B383E6EAF1E0D0
:1001900080819181A281B3810196A11DB11D8083CF
:1001A0009183A283B383EAEAF1E080819181A28105
:1001B000B3810196A11DB11D80839183A283B38376
:1001C00016BCFF91EF91BF91AF919F918F910F90CE
:1001D0000FBE0F901F901895F89494E0899FF0013E
:1001E0001124EA57FE4F6081718182819381789456
:1001F0000895F89494E0899FF0011124EA57FE4F86
:1002000010821182128213827894089583E084BD53
:1002100082E085BD16BCEEE6F0E0808181608083DF
:100220001092860110928701109288011092890124
:1002300010928A0110928B0110928C0110928D0104
:1002400010928E0110928F011092900110929101E4
:1002500010929201109293011092940110929501C4
:1002600010929601109297011092980110929901A4
:1002700010929A0110929B0110929C0110929D0184
:1002800010929E0110929F011092A0011092A10164
:100290001092A2011092A3011092A4011092A50144
:1002A0001092A6011092A7011092A8011092A90124
:1002B0001092AA011092AB011092AC011092AD0104
:1002C000789408951F920F920FB60F9211248F9376
:1002D0009F93AF93BF934A9B20C0809186019091DA
:1002E0008701A0918801B091890180938201909348
:1002F0008301A0938401B09385011092860110922E
:10030000870110928801109289011092AA0110921F
:10031000AB011092AC011092AD01BF91AF919F91D2
:100320008F910F900FBE0F901F90189581E08093D2
:1003300069008DBB0895681710F4861B0895681B2B
:10034000862F0895413039F1423029F496958795EA
:10035000779567950895443041F442E096958795E6
:10036000779567954A95D1F70895483041F433E081
:1003700096958795779567953A95D1F70895403189
:1003800041F424E096958795779567952A95D1F75E
:1003900008950C941C030895CF92DF92EF92FF9280
:1003A0000F931F939A01AB01843008F43AC1863051
:1003B00050F4CA01B901A5E09695879577956795A0
:1003C000AA95D1F732C18A3018F4CA01B90121C106
:1003D000803150F4CA01B901F6E09695879577957A
:1003E0006795FA95D1F70BC08631B8F4CA01B90107
:1003F000E5E09695879577956795EA95D1F7890118
:100400009A0154E036952795179507955A95D1F797
:10041000600F711F821F931F08C18C3100F5CA0144
:10042000B901A5E09695879577956795AA95D1F737
:1004300069017A01B4E0F694E794D794C794BA9529
:10044000D1F76C0D7D1D8E1D9F1D89019A0146E01F
:1004500036952795179507954A95D1F7D9CF8032CC
:1004600018F4CA01B901C9C0803450F4CA01B901F5
:10047000F5E09695879577956795FA95D1F70BC036
:10048000803598F4CA01B901E4E09695879577958F
:100490006795EA95D1F789019A0153E0369527953A
:1004A000179507955A95D1F7B3CF803600F5CA0155
:1004B000B901A4E09695879577956795AA95D1F7A8
:1004C00069017A01B3E0F694E794D794C794BA959A
:1004D000D1F76C0D7D1D8E1D9F1D89019A0145E090
:1004E00036952795179507954A95D1F791CF80377F
:1004F00018F4CA01B90173C087FD0AC0CA01B90165
:10050000F4E09695879577956795FA95D1F70BC0A6
:100510008E3898F4CA01B901E3E0969587957795EE
:100520006795EA95D1F789019A0142E036952795BA
:10053000179507954A95D1F76BCF803AB8F4CA0161
:10054000B901A3E09695879577956795AA95D1F718
:1005500069017A01B2E0F694E794D794C794BA950A
:10056000D1F76C0D7D1D8E1D9F1D49CF823B38F448
:10057000CA01B901969587957795679556C0843BD2
:1005800050F4CA01B901E4E096958795779567958F
:10059000EA95D1F717C08C3B50F4CA01B90103E0CA
:1005A00096958795779567950A95D1F70BC0843C0A
:1005B00080F4CA01B90112E0969587957795679501
:1005C0001A95D1F789019A013695279517950795C0
:1005D0001FCF8A3C60F4A3E0B0E00E945F0CA2E071
:1005E0009695879577956795AA95D1F71EC08E3C0D
:1005F00060F4A7E0B0E00E945F0CF3E09695879569
:1006000077956795FA95D1F710C0AFE0B0E00E94FA
:100610005F0CE4E09695879577956795EA95D1F715
:1006200004C06AE070E080E090E01F910F91FF90BD
:10063000EF90DF90CF9008951F932F93222710E221
:10064000660F771F881F991F221F10F0241710F0C4
:10065000241B61601A95A1F72F911F910895CF93E4
:10066000DF93CDB7DEB7C258D1090FB6F894DEBF1D
:100670000FBECDBF0E9406015298539A519A84B181
:100680008F6384B98AB1806C8AB987B1837C87B95A
:1006900087B1807C87B988B1807C88B980E88093F5
:1006A0007A0080E280937C0080917A00876080935A
:1006B0007A0080917A00806480937A000E9496018B
:1006C00021E0EE961FAEEE9732E0398F1A8A198A32
:1006D000188A1F861E861FAA18AE19AE1AAE1BAA4C
:1006E0001CAA1DAA1EAA1FA618AA19AA1AAA1BA6E6
:1006F0001CA61DA61EA6412C512C320166961FAECB
:100700001EAE6697188E1F8A1E8A1D8A1C8A198241
:100710001A821B821C821FA218A619A61AA61BA247
:100720001CA21DA21EA21F8E18A219A21AA21B8E05
:100730001C8E1D8E1E8E4FEF4E83FAE1CF2EF4E0FD
:10074000DF2EE12CF12C88E795E0A0E0B0E0649684
:100750008CAF9DAFAEAFBFAF649780E996E0A0E0ED
:10076000B0E060968CAF9DAFAEAFBFAF609788E949
:1007700098E0A0E0B0E02C968CAF9DAFAEAFBFAFDD
:100780002C9780EF9AE0A0E0B0E028968CAF9DAF68
:10079000AEAFBFAF289788E690E1A0E0B0E0E49666
:1007A0008CAF9DAFAEAFBFAFE49780ED90E2A0E01D
:1007B000B0E0E0968CAF9DAFAEAFBFAFE0972496B0
:1007C0001CAE1DAE1EAE1FAE2497AC961CAE1DAE69
:1007D0001EAE1FAEAC97A8961CAE1DAE1EAE1FAED1
:1007E000A897A4961CAE1DAE1EAE1FAEA497A096F1
:1007F0001CAE1DAE1EAE1FAEA097EC961CAE1DAE7D
:100800001EAE1FAEEC97E8961CAE1DAE1EAE1FAE20
:10081000E897A0EA8A2EA1E49A2EA12CB12C1B867F
:100820001A86198618861F826C961FAE6C976B9677
:100830001FAE6B976A961FAE6A9769961FAE69974F
:1008400068961FAE68971B8A1A8E3FE79FEFAFE747
:10085000AFAFBFE7BEAFEFE7EDAFFFE7FCAFBFE77E
:100860002B2E10E00FE7302E00E01BAECE57DF4FEF
:100870001882C258D0401D861C864C855D854F5F0E
:100880005F4F5D874C874536510508F439C180912B
:100890007A0084FFFCCF80917A00806180937A0097
:1008A00080917900CE57DF4F5881C258D0405430E4
:1008B00081F4801718F4402F481B02C0482F401BBA
:1008C000423008F0082F81114DC000E0BFEFBE8319
:1008D00049C0CE57DF4FA881C258D040A1110BC0EC
:1008E000811718F4412F481B02C0482F411B42308A
:1008F000C8F1182F37C0CE57DF4FB881C258D0404B
:10090000B33059F4831518F4432D481B02C0482F07
:100910004319423038F1382E25C0CE57DF4FE881D9
:10092000C258D040E13069F4FBAD8F1718F44F2F57
:10093000481B03C0482F5BAD451B423098F08BAF7E
:1009400011C0CE57DF4FA881C258D040A23051F419
:10095000821518F4422D481B02C0482F421942301C
:1009600008F0282E80917A00806480937A00CE5718
:10097000DF4FE881C258D040EF5FCE57DF4FE883AA
:10098000C258D040E63028F0CE57DF4F1882C25808
:10099000D040CE57DF4F8881C258D04080628093CC
:1009A0007C00CE57DF4FF881C258D040F111ADC066
:1009B0004BAD4295469547704D8389B185FB88279D
:1009C00080F967968FAF6797491303C0831709F4BF
:1009D00057C05D815F5F5A8F57705F5F5B8B8D8102
:1009E0008E5F87708F5F8F839D819D5F97709F5F04
:1009F0009887AD81AC5FA770AF5FA987BD81BB5FF2
:100A0000B770BF5FBA87ED81E95FE770EF5FEB8793
:100A10004D9B21C0FA8DFF0FFF0FFA8F550F550F19
:100A20005B8B880F880F68968FAF6897990F990F27
:100A300069969FAF6997AA0FAA0F6A96AFAF6A9798
:100A4000BB0FBB0F6B96BFAF6B97EE0FEE0F6C96A5
:100A5000EFAF6C9714C02B856C962FAF6C973A85CF
:100A60006B963FAF6B9749856A964FAF6A975885EB
:100A700069965FAF69978F8168968FAF689721E01D
:100A80009DAD291202C0AEAD3A1221E0BFAD0B17E9
:100A900099F0802F90E0013850F0EFEFF0E0E81B84
:100AA000F90BE050FF4F308130953E8305C0FC01CB
:100AB000E050FF4F40814E835CAD151799F1812FB7
:100AC0008F77A5E08A9FC0011124880F892F881F86
:100AD000990B9195B2E0B80FB98F17FF1BC0E12FAA
:100AE000E871E695E695E695EF5FEE96EFAFEE9747
:100AF000EB17C0F0F1E0F80FEE96FFAFEE9712C0E3
:100B000067963FAF67979D8313C067963FAF679720
:100B10009D830CC00FAF3EAE2DAE1CAFEE961FAE48
:100B2000EE9704C00FAF3EAE2DAE1CAF1D861C86E7
:100B3000349B03C080E090EE02C081E090EE6696A8
:100B40004EAD5FAD6697440F551F482B592B6696E7
:100B50005FAF4EAF669741155F4F71F54B8C5C8C64
:100B60006D8C7E8C8F8D98A1A9A1BAA18BA79CA713
:100B7000ADA7BEA78BA19CA1ADA1BEA18FA798AB2D
:100B8000A9ABBAAB8FA198A5A9A5BAA58BAB9CAB15
:100B9000ADABBEAB89819A81AB81BC818FAB98AF85
:100BA000A9AFBAAF1A8A198A188A1F861E86188EAC
:100BB0001F8A1E8A1D8A1C8A4A9B02C05B9801C03C
:100BC0005B9AF8948091AA019091AB01A091AC013D
:100BD000B091AD01789488159905AA05BB0578F404
:100BE0008091820190918301A0918401B09185014F
:100BF000892B8A2B8B2B09F494C04A9B92C0F894C2
:100C00008091820190918301A0918401B09185012E
:100C1000892B8A2B8B2B11F58091AA019091AB0126
:100C2000A091AC01B091AD0188169906AA06BB0649
:100C300028F58091AA019091AB01A091AC01B091EF
:100C4000AD0188199909AA09BB098093AA0190935B
:100C5000AB01A093AC01B093AD0110C080908201B4
:100C600090908301A0908401B09085011092820140
:100C700010928301109284011092850110928A01D2
:100C800010928B0110928C0110928D0110928E01A6
:100C900010928F0110929001109291011092920186
:100CA0001092930110929401109295011092960166
:100CB00010929701109298011092990110929A0146
:100CC00010929B0110929C0110929D0110929E0126
:100CD00010929F011092A0011092A1011092A20106
:100CE0001092A3011092A4011092A5011092A601E6
:100CF0001092A7011092A8011092A90178944C9B20
:100D000028984C9B29984C9B2A984C9B2B984C9B41
:100D10002C984C9B2D984C9B5F984C99B1C55E9834
:100D2000AFC5222309F471C291E0ED969FAFED9714
:100D3000B501A401832D0E94CC016B017C014A8D79
:100D40000E94A201E0966CAF7DAF8EAF9FAFE0979F
:100D50004B89C701B6010E94A201E4966CAF7DAF3A
:100D60008EAF9FAFE49768964FAD6897C701B60105
:100D70000E94A20128966CAF7DAF8EAF9FAF2897DF
:100D800069964FAD6997C701B6010E94A2012C96E2
:100D90006CAF7DAF8EAF9FAF2C976A964FAD6A97C1
:100DA000C701B6010E94A20160966CAF7DAF8EAF05
:100DB0009FAF60976B964FAD6B97C701B6010E94CE
:100DC000A20164966CAF7DAF8EAF9FAF64976C96B7
:100DD0004FAD6C97C701B6010E94A2016B017C0167
:100DE000E8962CAD3DAD4EAD5FADE8972C303105AA
:100DF00041055105A0F0E0968CAD9DADAEADBFAD07
:100E0000E0970A97A105B10550F42AE030E040E0F0
:100E100050E0E0962CAF3DAF4EAF5FAFE097EC9661
:100E20008CAD9DADAEADBFADEC970C97A105B105F6
:100E3000A8F0E4962CAD3DAD4EAD5FADE4972A3001
:100E400031054105510550F48AE090E0A0E0B0E0A2
:100E5000E4968CAF9DAFAEAFBFAFE497A0962CAD3C
:100E60003DAD4EAD5FADA0972C303105410551052C
:100E7000A0F028968CAD9DADAEADBFAD28970A977A
:100E8000A105B10550F42AE030E040E050E028969A
:100E90002CAF3DAF4EAF5FAF2897A4968CAD9DAD04
:100EA000AEADBFADA4970C97A105B105A8F02C96E7
:100EB0002CAD3DAD4EAD5FAD2C972A3031054105CF
:100EC000510550F48AE090E0A0E0B0E02C968CAFA1
:100ED0009DAFAEAFBFAF2C97A8962CAD3DAD4EAD3C
:100EE0005FADA8972C30310541055105A0F0609603
:100EF0008CAD9DADAEADBFAD60970A97A105B105B4
:100F000050F42AE030E040E050E060962CAF3DAF76
:100F10004EAF5FAF6097AC968CAD9DADAEADBFAD43
:100F2000AC970C97A105B105A8F064962CAD3DAD2A
:100F30004EAD5FAD64972A3031054105510550F43F
:100F40008AE090E0A0E0B0E064968CAF9DAFAEAFD9
:100F5000BFAF649724962CAD3DAD4EAD5FAD2497E9
:100F60002C3031054105510558F03AE0C316D10443
:100F7000E104F10428F46AE0C62ED12CE12CF12C16
:100F80004A8DC501B4010E94A201E8966CAF7DAF05
:100F90008EAF9FAFE8974B89C501B4010E94A201B3
:100FA000EC966CAF7DAF8EAF9FAFEC9768964FAD70
:100FB0006897C501B4010E94A201A0966CAF7DAFF5
:100FC0008EAF9FAFA09769964FAD6997C501B401E9
:100FD0000E94A201A4966CAF7DAF8EAF9FAFA49785
:100FE0006A964FAD6A97C501B4010E94A201A89606
:100FF0006CAF7DAF8EAF9FAFA8976B964FAD6B97E1
:10100000C501B4010E94A201AC966CAF7DAF8EAF5A
:101010009FAFAC976C964FAD6C97C501B4010E9421
:10102000A20124966CAF7DAF8EAF9FAF249741E0B5
:10103000421508F0ADC0822D90E0A0E0B0E08983B9
:101040009A83AB83BC8328962CAD3DAD4EAD5FAD8E
:1010500028972095309540955095A0968CAD9DADE4
:10106000AEADBFADA097280F391F4A1F5B1F698126
:101070007A818B819C810E944F0C272F382F492F1A
:1010800055272B8F3C8F4D8F5E8F2C962CAD3DAD11
:101090004EAD5FAD2C972095309540955095A49618
:1010A0008CAD9DADAEADBFADA497280F391F4A1FC3
:1010B0005B1F69817A818B819C810E944F0C272F55
:1010C000382F492F55272F8F38A349A35AA360964D
:1010D0002CAD3DAD4EAD5FAD609720953095409500
:1010E0005095A8968CAD9DADAEADBFADA897280F1D
:1010F000391F4A1F5B1F69817A818B819C810E9405
:101100004F0C272F382F492F55272BA33CA34DA336
:101110005EA364962CAD3DAD4EAD5FAD649720955A
:10112000309540955095AC968CAD9DADAEADBFADB4
:10113000AC97280F391F4A1F5B1F69817A818B8109
:101140009C810E944F0C272F382F492F55272FA302
:1011500038A749A75AA724962CAD3DAD4EAD5FAD3B
:10116000249721503109410951092C193D094E0993
:101170005F0969817A818B819C810E944F0C272FA6
:10118000382F492F552729833A834B835C8314C01A
:1011900019821A821B821C821FA218A619A61AA6DF
:1011A0001BA21CA21DA21EA21F8E18A219A21AA267
:1011B0001B8E1C8E1D8E1E8EED963FADED97323030
:1011C00021F54B8C5C8C6D8C7E8C8F8D98A1A9A1A8
:1011D000BAA18BA79CA7ADA7BEA72BA13CA14DA1EF
:1011E0005EA12FA738AB49AB5AAB8FA198A5A9A593
:1011F000BAA58BAB9CABADABBEAB29813A814B8121
:101200005C812FAB38AF49AF5AAFF89480918A0117
:1012100090918B01A0918C01B0918D017894E8960A
:101220002CAD3DAD4EAD5FADE89782179307A40797
:10123000B50728F081E00E94F9004C9B2898F894AB
:1012400080918E0190918F01A0919001B0919101B8
:101250007894EC962CAD3DAD4EAD5FADEC9782171A
:101260009307A407B50728F082E00E94F9004C9B81
:101270002998F894409192015091930160919401C2
:10128000709195017894A0968CAD9DADAEADBFAD3B
:10129000A097840D951DA61DB71D481759076A070D
:1012A0007B0708F443C083E00E94F9003E81832F4E
:1012B00090E028E030E04F81241B310902C0959571
:1012C00087952A95E2F70C8802C0959587950A9430
:1012D000E2F780FF02C04C9B2A985C895F5F5C8BC1
:1012E0008F81581710F01E861C8A9E85EE96AFAD32
:1012F000EE979A130DC04B8C5C8C6D8C7E8C709429
:10130000609450944094411C511C611C711C03C09A
:10131000412C512C3201BE85BF5FBE87E98DBE17BF
:1013200028F04B8C5C8C6D8C7E8C1E86F894209102
:101330009601309197014091980150919901C258BE
:10134000DF4F288339834A835B83CE57D04078941C
:101350008BA59CA5ADA5BEA5A4962CAD3DAD4EAD6F
:101360005FADA497820F931FA41FB51FC258DF4F14
:10137000288139814A815B81CE57D04028173907AF
:101380004A075B0708F44BC084E00E94F9003E81E5
:10139000832F90E028E030E04885241B310902C00B
:1013A000959587952A95E2F70D8802C095958795C2
:1013B0000A94E2F780FF02C04C9B2B985D895F5F27
:1013C0005D8B8885581710F01F861D8A9F85EE96C5
:1013D000AFADEE979A1310C02F8D38A149A15AA135
:1013E00050954095309521953F4F4F4F5F4F2BA71C
:1013F0003CA74DA75EA704C01BA61CA61DA61EA643
:101400003F853F5F3F87498D341748F08F8D98A106
:10141000A9A1BAA18BA79CA7ADA7BEA71F86F894C8
:1014200020919A0130919B0140919C0150919D0126
:10143000C258DF4F288339834A835B83CE57D0401D
:1014400078948FA598A9A9A9BAA9A8962CAD3DAD65
:101450004EAD5FADA897820F931FA41FB51FC25852
:10146000DF4F288139814A815B81CE57D0402817D0
:1014700039074A075B0708F44BC085E00E94F90072
:101480003E81832F90E028E030E04985241B31091C
:1014900002C0959587952A95E2F70E8802C095952A
:1014A00087950A94E2F780FF02C04C9B2C985E89D6
:1014B0005F5F5E8B8985581710F0188A1E8A98899D
:1014C000EE96AFADEE979A1310C02BA13CA14DA1A3
:1014D0005EA150954095309521953F4F4F4F5F4FFE
:1014E0002FA738AB49AB5AAB04C01FA618AA19AA3C
:1014F0001AAA38893F5F388B498D341748F08BA181
:101500009CA1ADA1BEA18FA798ABA9ABBAAB188A1D
:10151000F89420919E0130919F014091A00150913B
:10152000A101C258DF4F288339834A835B83CE579A
:10153000D04078948BA99CA9ADA9BEA9AC962CAD3E
:101540003DAD4EAD5FADAC97820F931FA41FB51F8D
:10155000C258DF4F288139814A815B81CE57D04004
:10156000281739074A075B0708F44BC086E00E943A
:10157000F9003E81832F90E028E030E04A85241B6B
:10158000310902C0959587952A95E2F70F8802C028
:10159000959587950A94E2F780FF02C04C9B2D98A1
:1015A0005F895F5F5F8B8A85581710F0198A1F8AE1
:1015B0009989EE96AFADEE979A1310C02FA138A57A
:1015C00049A55AA550954095309521953F4F4F4FCD
:1015D0005F4F2BAB3CAB4DAB5EAB04C01BAA1CAA50
:1015E0001DAA1EAA39893F5F398B498D341748F0EF
:1015F0008FA198A5A9A5BAA58BAB9CABADABBEAB93
:10160000198AF8942091A2013091A3014091A4017C
:101610005091A501C258DF4F288339834A835B83E9
:10162000CE57D04078948FA998ADA9ADBAAD249685
:101630002CAD3DAD4EAD5FAD2497820F931FA41F1F
:10164000B51FC258DF4F288139814A815B81CE574F
:10165000D040281739074A075B0708F44BC087E0DA
:101660000E94F9003E81832F90E028E030E04B8516
:10167000241B310902C0959587952A95E2F7088CBD
:1016800002C0959587950A94E2F780FF02C04C9BB3
:101690005F98588D5F5F588F8B85581710F01A8AA6
:1016A000188E9A89EE96AFADEE979A1310C02981E5
:1016B0003A814B815C8150954095309521953F4F03
:1016C0004F4F5F4F2FAB38AF49AF5AAF04C01FAA7F
:1016D00018AE19AE1AAE3A893F5F3A8B498D34176E
:1016E00048F029813A814B815C812FAB38AF49AFFB
:1016F0005AAF1A8AF8948091A6019091A701A091FF
:10170000A801B091A901789424962CAD3DAD4EADC1
:101710005FAD249782179307A407B50728F088E0E8
:101720000E94F9004C9B5E98F89480918A019091F8
:101730008B01A0918C01B0918D017894E0962CAD35
:101740003DAD4EAD5FADE09782179307A407B50797
:1017500008F0289AF89480918E0190918F01A091C1
:101760009001B09191017894E4962CAD3DAD4EADD1
:101770005FADE49782179307A407B50708F0299A8D
:10178000F8948091920190919301A0919401B0916D
:101790009501789428962CAD3DAD4EAD5FAD289760
:1017A00082179307A407B50708F02A9AF894809146
:1017B000960190919701A0919801B0919901789428
:1017C0002C962CAD3DAD4EAD5FAD2C978217930797
:1017D000A407B50708F02B9AF89480919A0190918C
:1017E0009B01A0919C01B0919D01789460962CADD5
:1017F0003DAD4EAD5FAD609782179307A407B50767
:1018000008F02C9AF89480919E0190919F01A091EC
:10181000A001B091A101789464962CAD3DAD4EAD80
:101820005FAD649782179307A407B50708F02D9A58
:10183000F8948091A2019091A301A091A401B0918C
:10184000A50178948C159D05AE05BF0508F05F9A3B
:10185000F8948091A6019091A701A091A801B09160
:10186000A90178948C159D05AE05BF0538F420E0DC
:1018700067963FAD67979D810C943D045E9AF7CFC4
:1018800032E0ED963FAFED971A8A198A188A1F86C3
:101890001E86188E1F8A1E8A1D8A1C8A49CADB0171
:1018A0008F939F930E945F0CBF91AF91A29F800D79
:1018B000911DA39F900DB29F900D112408950E9439
:1018C0006A0CA59F900DB49F900DA49F800D911D53
:1018D00011240895A29FB001B39FC001A39F700D72
:1018E000811D1124911DB29F700D811D1124911D28
:0618F0000895F894FFCFFB
:1018F600FFFEFDFBF7EFDFBF7F3F9FCFE7F3F9FC6E
:10190600FAF5EBD7AF5F6FB7DBEDF6EEDDBB777BB6
:10191600BDDEBE7D7E3E5E6E767A7CBCBAB6AE9E7F
:101926009DADB5B9D9D5CDCBD3E3C7E3F1F81F8FBC
:10193600D3E9F4ECB367DCF0E8D8B878746C5C3CB7
:101946003A362E1E1D1B170F1B3363C3C6CC6663A8
:10195600C6C3C5C9D1D2D46A352D5AB4AC562B4BA1
:1019660096A653939555AA55AA55AA55AA55AA556A
:02197600FF0070
:00000001FF
