:100000000C9434000C94A0010C9451000C945100F9
:100010000C9451000C9451000C9451000C9451001C
:100020000C9451000C9451000C9451000C9451000C
:100030000C9451000C9451000C9451000C945100FC
:100040000C9453000C9451000C9451000C945100EA
:100050000C9451000C9451000C9451000C945100DC
:100060000C9451000C94510011241FBECFEFD4E02A
:10007000DEBFCDBF11E0A0E0B1E0EEEFF6E202C0DE
:1000800005900D92A038B107D9F711E0A0E8B1E0D2
:1000900001C01D92AC3AB107E1F70E94F6030C943F
:1000A0007D130C9400001F920F920FB60F92112433
:1000B0008F939F93AF93BF9380918401909185011B
:1000C000A0918601B09187010196A11DB11D809379
:1000D000840190938501A0938601B093870180915C
:1000E000880190918901A0918A01B0918B010196BC
:1000F000A11DB11D8093880190938901A0938A016D
:10010000B0938B0180918C0190918D01A0918E0113
:10011000B0918F010196A11DB11D80938C01909328
:100120008D01A0938E01B0938F01809190019091E9
:100130009101A0919201B09193010196A11DB11D71
:100140008093900190939101A0939201B0939301B9
:100150008091940190919501A0919601B0919701A1
:100160000196A11DB11D8093940190939501A093D8
:100170009601B09397018091980190919901A09177
:100180009A01B0919B010196A11DB11D8093980128
:1001900090939901A0939A01B0939B0180919C0147
:1001A00090919D01A0919E01B0919F010196A11D8A
:1001B000B11D80939C0190939D01A0939E01B093EB
:1001C0009F018091A0019091A101A091A201B09105
:1001D000A3010196A11DB11D8093A0019093A101DF
:1001E000A093A201B093A3018091A4019091A501D5
:1001F000A091A601B091A7010196A11DB11D809308
:10020000A4019093A501A093A601B093A7018091AA
:10021000A8019091A901A091AA01B091AB0101960A
:10022000A11DB11D8093A8019093A901A093AA01DB
:10023000B093AB0116BCBF91AF919F918F910F907E
:100240000FBE0F901F901895E82FF894F0E0EE0F76
:10025000FF1FEE0FFF1FEC57FE4F208131814281BF
:1002600053817894B901CA010895E82FF894F0E019
:10027000EE0FFF1FEE0FFF1FEC57FE4F1082118293
:10028000128213827894089583E084BD82E085BD54
:1002900016BCEEE6F0E080818160808310928401DC
:1002A00010928501109286011092870110928801A8
:1002B0001092890110928A0110928B0110928C0188
:1002C00010928D0110928E0110928F011092900168
:1002D0001092910110929201109293011092940148
:1002E0001092950110929601109297011092980128
:1002F0001092990110929A0110929B0110929C0108
:1003000010929D0110929E0110929F011092A001E7
:100310001092A1011092A2011092A3011092A401C7
:100320001092A5011092A6011092A7011092A801A7
:100330001092A9011092AA011092AB01789408952D
:100340001F920F920FB60F9211248F939F93AF932A
:10035000BF934A9B20C08091840190918501A09118
:100360008601B09187018093800190938101A093D1
:100370008201B09383011092840110928501109242
:100380008601109287011092A8011092A901109283
:10039000AA011092AB01BF91AF919F918F910F90E5
:1003A0000FBE0F901F90189581E0809369008DBB60
:1003B0000895681718F0681B862F0895861B089506
:1003C000282FDB01CA01243008F441C0263098F1FF
:1003D0002A3008F443C0203108F44CC0263108F418
:1003E0005EC02C3108F470C0203208F48AC020347A
:1003F00008F491C0203508F4A3C0203608F4B5C035
:10040000203708F4CFC027FDD8C09A01AB0156951C
:10041000479537952795569547953795279564E0E5
:10042000B695A795979587956A95D1F7280F391FA7
:100430004A1F5B1F09C09A01AB01F5E0569547952D
:1004400037952795FA95D1F7B901CA0108952AE0A1
:1004500030E040E050E0B901CA0108959A01AB01D3
:10046000E4E05695479537952795EA95D1F7B90178
:10047000CA0108959A01AB0174E0569547953795E6
:1004800027957A95D1F766E0B695A79597958795C4
:100490006A95D1F7280F391F4A1F5B1FD5CF9A01E4
:1004A000AB01F4E05695479537952795FA95D1F726
:1004B000E5E0B695A79597958795EA95D1F7280F2A
:1004C000391F4A1F5B1FC0CF9A01AB0174E05695DC
:1004D0004795379527957A95D1F765E0B695A79515
:1004E000979587956A95D1F7280F391F4A1F5B1F8B
:1004F000B695A79597958795280F391F4A1F5B1FBB
:10050000A3CF9A01AB01E3E0569547953795279520
:10051000EA95D1F799CF9A01AB0173E056954795CB
:10052000379527957A95D1F765E0B695A795979574
:1005300087956A95D1F7280F391F4A1F5B1F84CF13
:100540009A01AB01F3E05695479537952795FA95B3
:10055000D1F7E4E0B695A79597958795EA95D1F7F9
:10056000280F391F4A1F5B1F6FCF9A01AB0173E041
:1005700056954795379527957A95D1F764E0B695C6
:10058000A795979587956A95D1F7280F391F4A1F28
:100590005B1FB695A79597958795280F391F4A1F1A
:1005A0005B1F52CF9A01AB0156954795379527951A
:1005B000569547953795279547CF2E3898F1203A8D
:1005C00008F44DC0223B08F443C0243B08F4B7C0F4
:1005D0002C3B08F4A2C0243C08F48CC02A3C08F44C
:1005E00076C02E3C08F459C09A01AB01220F331F8C
:1005F000441F551F220F331F441F551F220F331F47
:10060000441F551F220F331F441F551F281B390B32
:100610004A0B5B0B64E056954795379527956A958D
:10062000D1F712CF9A01AB0156954795379527958B
:100630005695479537952795E3E0B695A7959795F5
:100640008795EA95D1F7280F391F4A1F5B1FFCCE0B
:100650009A01AB015695479537952795F5CE9A01A6
:10066000AB015695479537952795569547953795FC
:10067000279563E0B695A795979587956A95D1F7E5
:10068000280F391F4A1F5B1FB695A7959795879529
:10069000280F391F4A1F5B1FD7CE9A01AB01220FCB
:1006A000331F441F551F220F331F441F551F220F96
:1006B000331F441F551F281B390B4A0B5B0BF3E0FC
:1006C0005695479537952795FA95D1F7BDCE9A015E
:1006D000AB01220F331F441F551F280F391F4A1F1C
:1006E0005B1F5695479537952795569547953795AE
:1006F0002795AACE9A01AB01569547953795279530
:10070000B695A79597958795B695A795979587954B
:10071000280F391F4A1F5B1F97CE9A01AB015695D0
:10072000479537952795E3E0B695A79597958795D3
:10073000EA95D1F7280F391F4A1F5B1F85CE9A0112
:10074000AB01569547953795279564E0B695A795E3
:10075000979587956A95D1F7280F391F4A1F5B1F18
:1007600073CE0F931F938B019C01413061F0423097
:1007700079F04430B1F0483069F14031F9F00E942D
:100780004B138B019C01B801C9011F910F91089572
:100790003695279517950795B801C9011F910F91B7
:1007A00008953695279517950795369527951795AA
:1007B0000795B801C9011F910F910895A4E03695DE
:1007C000279517950795AA95D1F7B801C9011F91EB
:1007D0000F910895B3E03695279517950795BA952B
:1007E000D1F7B801C9011F910F9108952F923F923F
:1007F0004F925F926F927F928F929F92AF92BF9231
:10080000CF92DF92EF92FF920F931F93DF93CF93DC
:10081000CDB7DEB7C558D0400FB6F894DEBF0FBED7
:10082000CDBF0E9444015298539A519A84B18F636C
:1008300084B98AB1806C8AB987B1837C87B987B162
:10084000807C87B988B1807C88B980E880937A0001
:1008500080E280937C0080917A00876080937A00A8
:1008600080917A00806480937A0081E080936900AF
:100870008DBBCC57DF4F19821882C458D040C15865
:10088000DF4F1882CF57D040EF961FAEEF97EE960E
:100890001FAEEE970FE7ED960FAFED97EC961FAEFC
:1008A000EC97EB960FAFEB97EA960FAFEA97E996C6
:1008B0000FAFE997E8960FAFE897E7960FAFE79786
:1008C0001FEFE6961FAFE697E5960FAFE597E49624
:1008D0001FAEE497E3961FAEE397E2961FAEE29752
:1008E000E1961FAEE197E0961FAEE097AF961FAE80
:1008F000AF97AE961FAEAE97AD961FAEAD97AC96C6
:100900001FAEAC97AB961FAEAB97AA961FAEAA9739
:10091000A9961FAEA99710EAA12E11E4B12EC12C01
:10092000D12CA8961CAE1DAE1EAE1FAEA897A496E5
:100930001CAE1DAE1EAE1FAEA497A0961CAE1DAE83
:100940001EAE1FAEA0976C961CAE1DAE1EAE1FAEA7
:100950006C9768961CAE1DAE1EAE1FAE689764966F
:100960001CAE1DAE1EAE1FAE64972224332421019F
:1009700020ED30E240E050E060962CAF3DAF4EAF4E
:100980005FAF609748E650E160E070E02C964CAFB6
:100990005DAF6EAF7FAF2C9760EF7AE080E090E0C4
:1009A00028966CAF7DAF8EAF9FAF289788E998E00F
:1009B000A0E0B0E024968CAF9DAFAEAFBFAF249760
:1009C000B0E9EB2EB6E0FB2E012D112DECAEFDAE05
:1009D0000EAF1FAF08E715E020E030E008AF19AF19
:1009E0002AAF3BAFAAE16A2EA4E07A2E812C912C8B
:1009F0001FEF1FAB1BAA1CAA1DAA1EAA1FA618AA7E
:100A000019AA1AAA1BA61CA61DA61EA61FA218A6D6
:100A100019A61AA61BA21CA21DA21EA21AA219A2E6
:100A200018A21F8E1E8E1D8E198E1A8E1B8E1C8E66
:100A30001D8A1E8A1F8A188E198A1A8A1B8A1C8A86
:100A40001D861E861F86188A19861A861B861C8696
:100A500018861F821E821D821C8222E02B831A822E
:100A600031E03983EFC1349944C21D8E4A9B8BC259
:100A70005B98F8948091A8019091A901A091AA0196
:100A8000B091AB0178948A159B05AC05BD0508F0C3
:100A90007CC28091800190918101A0918201B091EE
:100AA00083010097A105B10511F04A996EC25981E1
:100AB000552309F0F6C2F89480918801909189013C
:100AC000A0918A01B0918B017894A8960CAD1DADD0
:100AD0002EAD3FADA89780179107A207B30760F02E
:100AE000F894109288011092890110928A01109254
:100AF0008B0178944C9B2898F89480918C0190916C
:100B00008D01A0918E01B0918F017894A4962CADA7
:100B10003DAD4EAD5FADA49782179307A407B5070F
:100B200060F0F89410928C0110928D0110928E0159
:100B300010928F0178944C9B2998F8942091900101
:100B40003091910140919201509193017894898D57
:100B50009A8DAB8DBC8DA096ECACFDAC0EAD1FADEF
:100B6000A0978E0D9F1DA01FB11F281739074A0798
:100B70005B0708F020C60885F89420919401309115
:100B800095014091960150919701C058DF4F2883FD
:100B900039834A835B83C058D04078948D899E897D
:100BA000AF89B88D6C964CAD5DAD6EAD7FAD6C9779
:100BB000840F951FA61FB71FC058DF4F28813981AA
:100BC0004A815B81C058D040281739074A075B0724
:100BD00008F037C61F81F8946091980170919901CF
:100BE00080919A0190919B01C058DF4F688379836F
:100BF0008A839B83C058D040789489899A89AB892D
:100C0000BC8968962CAD3DAD4EAD5FAD6897820F47
:100C1000931FA41FB51FC058DF4F488159816A81B7
:100C20007B81C058D040481759076A077B0708F0F6
:100C30007BC5EE80F89460919C0170919D0180913C
:100C40009E0190919F01C058DF4F688379838A830A
:100C50009B83C058D04078948D859E85AF85B88998
:100C600064962CAD3DAD4EAD5FAD6497820F931F82
:100C7000A41FB51FC058DF4F488159816A817B810D
:100C8000C058D040481759076A077B0708F065C667
:100C9000FD80F8942091A0013091A1014091A20122
:100CA0005091A301789489859A85AB85BC85820D86
:100CB000931DA41DB51D281739074A075B0708F0C7
:100CC00006C62C81F8948091A4019091A501A09171
:100CD000A601B091A701789482159305A405B505E6
:100CE00060F0F8941092A4011092A5011092A60150
:100CF0001092A70178944C9B5E98F894809188019B
:100D000090918901A0918A01B0918B0178946096AD
:100D10004CAD5DAD6EAD7FAD609784179507A607AE
:100D2000B70708F0289AF89480918C0190918D0172
:100D3000A0918E01B0918F0178942C964CAD5DAD51
:100D40006EAD7FAD2C9784179507A607B70708F0FF
:100D5000299AF8948091900190919101A09192012B
:100D6000B0919301789428964CAD5DAD6EAD7FAD9A
:100D7000289784179507A607B70708F02A9AF894CA
:100D80008091940190919501A0919601B091970165
:100D9000789424964CAD5DAD6EAD7FAD24978417ED
:100DA0009507A607B70708F02B9AF8948091980149
:100DB00090919901A0919A01B0919B0178944CADCA
:100DC0005DAD6EAD7FAD84179507A607B70708F038
:100DD0002C9AF89480919C0190919D01A0919E0184
:100DE000B0919F01789448AD59AD6AAD7BAD841741
:100DF0009507A607B70708F02D9AF8948091A001EF
:100E00009091A101A091A201B091A30178948615BF
:100E10009705A805B90508F05F9AF8948091A40198
:100E20009091A501A091A601B091A7017894861593
:100E30009705A805B90508F05E9A08871F83EE821A
:100E4000FD822C83CC57DF4F48815981C458D04054
:100E50004F5F5F4FCC57DF4F59834883C458D04012
:100E60004536510508F4FFCD80917A0084FFFCCF10
:100E700080917A00806180937A0080917900C158D6
:100E8000DF4F5881CF57D040543009F418C755234D
:100E900009F0FDC6EC96AFADEC978A1708F0D3C702
:100EA0009A2F981B923018F0EC968FAFEC978091A8
:100EB0007A00806480937A00C158DF4F6881CF57F1
:100EC000D0406F5FC158DF4F6883CF57D040663046
:100ED00008F002C6862F806280937C00662309F4A6
:100EE000FEC5CC57DF4F19821882C458D040349BBE
:100EF000BCCD3D8D332309F0B9CD4BA95CA96DA9BB
:100F00007EA9498F5A8F6B8F7C8F6FA578A989A98D
:100F10009AA96D8B7E8B8F8B988F8BA59CA5ADA589
:100F2000BEA5898B9A8BAB8BBC8BEFA0F8A409A5CF
:100F30001AA5ED86FE860F87188B0BA11CA12DA18B
:100F40003EA109871A872B873C874C9B28984C9B8E
:100F500029984C9B2A984C9B2B984C9B2C984C9BEB
:100F60002D984C9B5F984C9BC0C61AA219A218A240
:100F70001F8E1E8E11E01D8F18861F821E821D82FD
:100F80001C824A9975CD5B9A74CDF894809180014A
:100F900090918101A0918201B09183010097A105F8
:100FA000B10509F01FC58091A8019091A901A091F8
:100FB000AA01B091AB01A816B906CA06DB06A0F4D7
:100FC0008091A8019091A901A091AA01B091AB01D3
:100FD0008A199B09AC09BD098093A8019093A901C6
:100FE000A093AA01B093AB011092880110928901DD
:100FF00010928A0110928B0110928C0110928D0137
:1010000010928E0110928F01109290011092910116
:1010100010929201109293011092940110929501F6
:1010200010929601109297011092980110929901D6
:1010300010929A0110929B0110929C0110929D01B6
:1010400010929E0110929F011092A0011092A10196
:101050001092A2011092A3011092A4011092A50176
:101060001092A6011092A70178944C9B28984C9B53
:1010700029984C9B2A984C9B2B984C9B2C984C9BCA
:101080002D984C9B5F984C9BBEC41AA219A218A223
:101090001F8E1E8E18861F821E821D821C8232E0C9
:1010A0003983ED968FADED97B601A5010E94E00161
:1010B0007B018C01E4966FADE497613009F4C6C6FC
:1010C000623009F455C7643011F40C943A11683059
:1010D00011F40C94F312603111F40C948411462F26
:1010E000C801B7010E944B1360966CAF7DAF8EAF05
:1010F0009FAF6097E3967FADE397713009F4B2C676
:10110000723009F428C7743011F40C9457117830F8
:1011100011F40C941513703111F40C94A511472F90
:10112000C801B7010E944B132C966CAF7DAF8EAFF8
:101130009FAF2C97E2969FADE297913009F49EC63F
:10114000923009F48DC7943011F40C9497109830B4
:1011500011F40C949512903111F40C942012492F33
:10116000C801B7010E944B1328966CAF7DAF8EAFBC
:101170009FAF2897E1969FADE197913009F48AC619
:10118000923009F453C7943011F40C94281198301C
:1011900011F40C94C612903111F40C94E111492F02
:1011A000C801B7010E944B1324966CAF7DAF8EAF80
:1011B0009FAF2497E0969FADE097913009F476C6F3
:1011C000923009F414C7943009F4D4C7983011F45C
:1011D0000C947512903111F40C940212492FC8012D
:1011E000B7010E944B136CAF7DAF8EAF9FAFAF9630
:1011F0009FADAF97913009F463C6923009F4ECC605
:10120000943011F40C941811983011F40C94B71216
:10121000903111F40C941112492FC801B7010E94AA
:101220004B1368AF79AF8AAF9BAFAE969FADAE97C9
:10123000913009F44FC6923009F4F1C6943009F4A4
:10124000B9C7983011F40C94D712903111F40C9462
:10125000C611492FC801B7010E944B133B014C0135
:10126000A8960CAD1DAD2EAD3FADA8970C30110565
:1012700021053105A8F060962CAD3DAD4EAD5FADBA
:1012800060972A3031054105510550F44AE050E09D
:1012900060E070E060964CAF5DAF6EAF7FAF60977F
:1012A000A4966CAD7DAD8EAD9FADA4976C307105ED
:1012B00081059105A8F02C968CAD9DADAEADBFAD6E
:1012C0002C970A97A105B10558F48AE0E82EF12C75
:1012D000012D112D2C96ECAEFDAE0EAF1FAF2C974D
:1012E000A0960CAD1DAD2EAD3FADA0970C301105F5
:1012F00021053105A8F028962CAD3DAD4EAD5FAD72
:1013000028972A3031054105510550F44AE050E054
:1013100060E070E028964CAF5DAF6EAF7FAF28976E
:101320006C966CAD7DAD8EAD9FAD6C976C307105DC
:1013300081059105A8F024968CAD9DADAEADBFADF5
:1013400024970A97A105B10558F4BAE0EB2EF12CC9
:10135000012D112D2496ECAEFDAE0EAF1FAF2497DC
:1013600068960CAD1DAD2EAD3FAD68970C301105E4
:101370002105310588F02CAD3DAD4EAD5FAD2A3075
:1013800031054105510540F44AE050E060E070E06D
:101390004CAF5DAF6EAF7FAF64966CAD7DAD8EAD83
:1013A0009FAD64976C3071058105910588F088AD1B
:1013B00099ADAAADBBAD0A97A105B10548F4AAE065
:1013C000EA2EF12C012D112DE8AEF9AE0AAF1BAFBC
:1013D0000CE0201631044104510458F01AE0611663
:1013E00071048104910428F4FAE06F2E712C812C91
:1013F000912CE4962FADE497213009F494C5223066
:1014000009F400C6243009F4C4C6283011F40C9441
:101410008412203111F40C943112422FC601B5010F
:101420000E944B13A8966CAF7DAF8EAF9FAFA8976D
:10143000E3960FADE397013009F46EC5023009F46D
:101440001CC6043009F445C7083011F40C9464122A
:10145000003111F40C944212402FC601B5010E94D4
:101460004B13A4966CAF7DAF8EAF9FAFA497E2965F
:101470009FADE297913009F448C5923009F4E3C575
:10148000943009F466C6983011F40C94A612903189
:1014900009F46CC7492FC601B5010E944B13A096F1
:1014A0006CAF7DAF8EAF9FAFA097E1967FADE19718
:1014B000713009F423C5723009F474C5743009F42D
:1014C00095C6783011F40C94E212703109F48AC791
:1014D000472FC601B5010E944B136C966CAF7DAFD0
:1014E0008EAF9FAF6C97E0967FADE097713009F4B7
:1014F000FEC4723009F463C5743009F488C67830CC
:1015000011F40C943113703109F44BC7472FC60105
:10151000B5010E944B1368966CAF7DAF8EAF9FAF45
:101520006897AF967FADAF97713009F4D9C4723028
:1015300009F42BC5743009F448C6783011F40C94C2
:101540000413703109F4F1C6472FC601B5010E949A
:101550004B1364966CAF7DAF8EAF9FAF6497AE9622
:101560007FADAE97713009F4B8C4723009F4ECC4A1
:10157000743009F491C6783011F40C94261370314C
:1015800009F4B8C6472FC601B5010E944B131B01D1
:101590002C01EB96EFADEB97E23008F401C4EE2E90
:1015A000FF2400E010E028966CAD7DAD8EAD9FADC0
:1015B00028976095709580959095A0962CAD3DAD3F
:1015C0004EAD5FADA097620F731F841F951FA801DA
:1015D00097010E945E13272F382F492F55272BABD9
:1015E0003CAB4DAB5EAB24966CAD7DAD8EAD9FAD8F
:1015F000249760957095809590956C962CAD3DAD37
:101600004EAD5FAD6C97620F731F841F951FA801CD
:1016100097010E945E13272F382F492F55272FA798
:1016200038AB49AB5AAB6CAD7DAD8EAD9FAD60951F
:1016300070958095909568962CAD3DAD4EAD5FADA3
:101640006897620F731F841F951FA80197010E945E
:101650005E13272F382F492F55272BA73CA74DA7BF
:101660005EA768AD79AD8AAD9BAD609570958095AC
:10167000909564962CAD3DAD4EAD5FAD6497620F15
:10168000731F841F951FA80197010E945E13272FC7
:10169000382F492F55272FA338A749A75AA7C40188
:1016A000B3016095709580959095620D731D841DB2
:1016B000951DA80197010E945E13E72EF82E092FB1
:1016C0001127EBA2FCA20DA31EA30981023011F089
:1016D0001982F1C92BA93CA94DA95EA9298F3A8F7E
:1016E0004B8F5C8F4FA558A969A97AA94D8B5E8B4A
:1016F0006F8B788F6BA57CA58DA59EA5698B7A8B4A
:101700008B8B9C8B8FA198A5A9A5BAA58D879E8749
:10171000AF87B88BEBA0FCA00DA11EA1E986FA86CD
:101720000B871C871982C7C9F894109298011092F0
:10173000990110929A0110929B0178945FA9852FCC
:1017400090E028E030E0AB966FADAB97261B3109F7
:1017500002C0959587952A95E2F708A002C0959555
:1017600087950A94E2F780FF02C04C9B2C9878A1E1
:101770007F5F78A3AB968FADAB97781708F467C1FE
:1017800018A21E82EE24E3949E81AA819A1709F47E
:1017900065C1198A1A8A1B8A1C8A3B81E31608F4E0
:1017A00049CA4BA55CA56DA57EA5498B5A8B6B8B51
:1017B0007C8BEE243FCAF894109290011092910114
:1017C00010929201109293017894FFA88F2D90E0CF
:1017D00028E030E0AD960FADAD97201B310902C077
:1017E000959587952A95E2F70AA002C09595879569
:1017F0000A94E2F780FF02C04C9B2A981AA11F5F4F
:101800001AA3AD962FADAD97121708F437C11AA2DF
:10181000188601E038854A81341709F436C1198EDB
:101820001A8E1B8E1C8E7B81071708F4A5C98BA905
:101830009CA9ADA9BEA9898F9A8FAB8FBC8F00E000
:101840009BC9F89410929401109295011092960100
:101850001092970178943FA9832F90E028E030E020
:10186000AC964FADAC97241B310902C09595879576
:101870002A95E2F709A002C0959587950A94E2F7A8
:1018800080FF02C04C9B2B9859A15F5F59A3AC9677
:101890006FADAC97561708F4E3C119A21F8211E08F
:1018A0007F818A81781709F4E2C11D8A1E8A1F8A06
:1018B000188E3B81131708F48EC94FA558A969A942
:1018C0007AA94D8B5E8B6F8B788F10E084C9F8946A
:1018D0001092A0011092A1011092A2011092A301F6
:1018E00078945FA9852F90E028E030E0A9966FAD4D
:1018F000A997261B310902C0959587952A95E2F78D
:101900000E8C02C0959587950A94E2F780FF02C07D
:101910004C9B5F987E8D7F5F7E8FA9968FADA99738
:10192000781708F4C2C01E8E1C8221E09C81AA8117
:101930009A1709F4C1C019861A861B861C865B811A
:10194000251708F4BFC96BA17CA18DA19EA1698751
:101950007A878B879C8720E0B5C9F89410929C0108
:1019600010929D0110929E0110929F0178945FA9A0
:10197000852F90E028E030E0AA966FADAA97261B4D
:10198000310902C0959587952A95E2F70F8C02C020
:10199000959587950A94E2F780FF02C04C9B2D989D
:1019A0007F8D7F5F7F8FAA968FADAA977817C8F13A
:1019B0001F8E1D82FF24F3949D81AA819A17B9F18D
:1019C0001D861E861F86188A3B81F31608F461C99E
:1019D0004FA158A569A57AA54D875E876F87788B3B
:1019E000FF2457C9A0908001B0908101C09082016E
:1019F000D090830110928001109281011092820197
:101A000010928301F1CA5E981AA219A218A21F8E21
:101A10001E8E18861F821E821D821C8242E0498310
:101A200040CBFD80F3949D81AA819A1749F62FA19E
:101A300038A549A55AA550954095309521953F4F19
:101A40004F4F5F4F2D873E874F87588BBDCFEE801E
:101A5000E3949E81AA819A1709F09BCE2BA53CA501
:101A60004DA55EA550954095309521953F4F4F4F20
:101A70005F4F298B3A8B4B8B5C8B8FCE08850F5F2A
:101A800038854A81341709F0CACE6BA97CA98DA983
:101A90009EA990958095709561957F4F8F4F9F4F30
:101AA000698F7A8F8B8F9C8FBECE2C812F5F9C810C
:101AB000AA819A1709F03FCF4BA15CA16DA17EA12D
:101AC00070956095509541955F4F6F4F7F4F498757
:101AD0005A876B877C8733CF50E250937C00EF9618
:101AE000AFADEF97A295A695A77089B190E09695B6
:101AF0008795929582958F7089279F708927682F87
:101B00006170E6967FADE697A71709F413C29A2F86
:101B10009F5FE4969FAFE49797709F5FE3969FAFB8
:101B2000E3974A2F4E5F47704F5F3A2F3D5F377004
:101B30003F5F2A2F2C5F27702F5F9A2F9B5F977034
:101B40009F5F8A2F895F87708F5F4D99D7C0E2961C
:101B50004FAFE297E1963FAFE197E0962FAFE09766
:101B6000AF969FAFAF97AE968FAFAE97AD964FAF94
:101B7000AD97AC963FAFAC97AB962FAFAB97AA960D
:101B80009FAFAA97A9968FAFA997B1E0B983EB96BB
:101B90008FADEB97E9969FADE997891709F4F6C0E9
:101BA000F1E0F983EE96EFACEE97E796FFACE7979E
:101BB000EF1471F00E2D013808F407C12FEF30E05B
:101BC0002E19310920503F4FF901F081F095FFABFC
:101BD000EC96EFACEC97EA96FFACEA97EF1409F4B9
:101BE00007C14E2D50E0CA018F7790709C01220FE3
:101BF000331F220F331F280F391F220F232F221FBD
:101C0000330B3195022F0E5F0B83E7FC54C2EA962B
:101C1000EFAEEA97EB961FADEB97E9961FAFE9970A
:101C2000ED962FADED97E8962FAFE897EE963FAD86
:101C3000EE97E7963FAFE797E696AFAFE697E59664
:101C40006FAFE597CC57DF4F19821882C458D04048
:101C5000C158DF4F1882CF57D0401A820C943305F9
:101C60001F811F5F7F818A81781709F01ECE2FA503
:101C700038A949A95AA950954095309521953F4FCB
:101C80004F4F5F4F2D8B3E8B4F8B588F12CE533063
:101C900009F400C2513009F406C4523009F007C9F2
:101CA000EB964FADEB97841708F0F2C4942F981B76
:101CB000923008F4FCC8EB968FAFEB97F8C8EE961D
:101CC0006FADEE97861708F03CC1962F981B9230A7
:101CD00018F0EE968FAFEE97882309F0E8C8EE96DD
:101CE0001FAEEE978FEF8FABE2C85E981AA219A2D3
:101CF00018A21F8E1E8E21E02D8F3EC9E496EFADF7
:101D0000E497EE0FEE0FE496EFAFE497E396FFADA6
:101D1000E397FF0FFF0FE396FFAFE397E42EEE0C80
:101D2000EE0CE296EFAEE297F32EFF0CFF0CE1967D
:101D3000FFAEE197022F000F000FE0960FAFE09784
:101D4000192F110F110FAF961FAFAF97582F550FC7
:101D5000550FAE965FAFAE97AD964FAFAD97AC96C1
:101D60003FAFAC97AB962FAFAB97AA969FAFAA9712
:101D7000A9968FAFA99771E07983EB968FADEB971A
:101D8000E9969FADE997891709F00ACFED96BFADA7
:101D9000ED97E896EFADE897BE1709F001CF02CFB7
:101DA0001BAA1CAA1DAA1EAA1FA618AA19AA1AAA0B
:101DB0001BA61CA61DA61EA61FA218A619A61AA61B
:101DC0001BA21CA21DA21EA280CCEE96EFACEE9729
:101DD0002E2D30E020503F4FF901F081FFABEC9603
:101DE000EFACEC97EA96FFACEA97EF1409F0F9CE66
:101DF000EC96FFACEC97EA96FFAEEA97EB960FAD48
:101E0000EB97E9960FAFE997ED961FADED97E89642
:101E10001FAFE897EE962FADEE97E7962FAFE797B7
:101E2000E696AFAFE697E5966FAFE597CC57DF4FF5
:101E300019821882C458D040C158DF4F1882CF573A
:101E4000D0400C943305982F9A1B2CC86096ECAEAA
:101E5000FDAE0EAF1FAF6097E3967FADE397713095
:101E600009F04EC92C96ECAEFDAE0EAF1FAF2C970D
:101E7000E2969FADE297913009F062C92896ECAEE8
:101E8000FDAE0EAF1FAF2897E1969FADE197913061
:101E900009F076C92496ECAEFDAE0EAF1FAF2497C5
:101EA000E0969FADE097913009F08AC9ECAEFDAEA7
:101EB0000EAF1FAFAF969FADAF97913009F09DC9A0
:101EC000E8AEF9AE0AAF1BAFAE969FADAE979130BC
:101ED00009F0B1C937014801C3C91501260159CB21
:101EE0006496ACAEBDAECEAEDFAE649738CB68962E
:101EF000ACAEBDAECEAEDFAE689713CB6C96ACAEDB
:101F0000BDAECEAEDFAE6C97EECAA096ACAEBDAEA7
:101F1000CEAEDFAEA097C9CAA496ACAEBDAECEAE73
:101F2000DFAEA497A4CAA896ACAEBDAECEAEDFAE6F
:101F3000A8977ECAE5968FADE597861709F0E7CD9D
:101F400026CE982F961BC3CE150126015694479492
:101F5000379427941ECBA80197015695479537953E
:101F600027952C962CAF3DAF4EAF5FAF2C97E2C8B4
:101F7000D801C701B695A7959795879560968CAFC0
:101F80009DAFAEAFBFAF6097B5C88601750116951E
:101F90000795F794E7946496ECAEFDAE0EAF1FAFD5
:101FA0006497DDCA8601750116950795F794E79445
:101FB0006C96ECAEFDAE0EAF1FAF6C9794CA860167
:101FC000750116950795F794E7946896ECAEFDAE0B
:101FD0000EAF1FAF6897A5CAA80197015695479500
:101FE0003795279528AF39AF4AAF5BAF1EC9A80117
:101FF000970156954795379527952CAF3DAF4EAF36
:102000005FAFF5C8B601A5017695679557954795D9
:10201000A8964CAF5DAF6EAF7FAFA89709CA3701E6
:10202000480196948794779467941AC9A8019701F8
:10203000569547953795279524962CAF3DAF4EAFD3
:102040005FAF2497B7C88601750116950795F79479
:10205000E794A096ECAEFDAE0EAF1FAFA09725CAD9
:10206000A8019701569547953795279528962CAF47
:102070003DAF4EAF5FAF28977DC8A601950156953D
:10208000479537952795A4962CAF3DAF4EAF5FAFE0
:10209000A497EDC9ED96FFADED978F1708F0F2C24A
:1020A0009F2F981B923010F40C945707ED968FAF2A
:1020B000ED970C9457074871507055954795559575
:1020C000479555954795742F7F5F7A83701708F46D
:1020D0008FCE922F9F5F9A83EC96BFADEC97EA96D6
:1020E000BFAFEA97EB96EFADEB97E996EFAFE997C5
:1020F000ED96FFADED97E896FFAFE897EE96EFAC63
:10210000EE97E796EFAEE797E696AFAFE697E596E0
:102110006FAFE597CC57DF4F19821882C458D04073
:10212000C158DF4F1882CF57D0400C943305B80107
:10213000A701769567955795479576956795579535
:10214000479528964CAF5DAF6EAF7FAF28970C9444
:10215000BA08A60195015695479537952795569546
:10216000479537952795A0962CAF3DAF4EAF5FAF03
:10217000A0979BC9B801A701769567955795479594
:1021800076956795579547954CAF5DAF6EAF7FAF2E
:102190002EC8C601B5019695879577956795969552
:1021A000879577956795A8966CAF7DAF8EAF9FAFFB
:1021B000A8973EC93701480196948794779467940D
:1021C00096948794779467944BC8A6019501569589
:1021D0004795379527955695479537952795649652
:1021E0002CAF3DAF4EAF5FAF6497B9C9A601950163
:1021F0005695479537952795569547953795279541
:102200006C962CAF3DAF4EAF5FAF6C976CC9A6011B
:102210009501569547953795279556954795379546
:10222000279568962CAF3DAF4EAF5FAF689779C9E1
:10223000B801A70176956795579547957695679567
:102240005795479548AF59AF6AAF7BAF0C941509C6
:10225000B801A70176956795579547957695679547
:102260005795479524964CAF5DAF6EAF7FAF2497DF
:102270000C94DA08A801970156954795379527954C
:10228000569547953795279560962CAF3DAF4EAF45
:102290005FAF60970C947A08150126015694479415
:1022A00037942794569447943794279472C9B80169
:1022B000A7017695679557954795769567955795B4
:1022C00047952C964CAF5DAF6EAF7FAF2C970C94BB
:1022D0009A08B601A5017695679557954795769525
:1022E000679557954795A4964CAF5DAF6EAF7FAF9E
:1022F000A497BDC815012601F4E05694479437947D
:102300002794FA95D1F745C9C801B701A4E096957D
:10231000879577956795AA95D1F760966CAF7DAF55
:102320008EAF9FAF60970C947A08C601B50104E0A8
:1023300096958795779567950A95D1F764966CAFD2
:102340007DAF8EAF9FAF64970AC9D801C70124E063
:10235000B695A795979587952A95D1F72C968CAF2A
:102360009DAFAEAFBFAF2C970C949A08C601B501D4
:1023700024E096958795779567952A95D1F7A0964D
:102380006CAF7DAF8EAF9FAFA0978FC8370148016C
:1023900094E096948794779467949A95D1F70C94E7
:1023A0003009C601B50134E0969587957795679514
:1023B0003A95D1F768966CAF7DAF8EAF9FAF6897B7
:1023C000B0C8D801C70124E0B695A7959795879521
:1023D0002A95D1F724968CAF9DAFAEAFBFAF2497AF
:1023E0000C94DA08C601B501B4E096958795779507
:1023F0006795BA95D1F76C966CAF7DAF8EAF9FAFF6
:102400006C9771C8D801C70124E0B695A795979538
:1024100087952A95D1F78CAF9DAFAEAFBFAF0C9427
:10242000F708D801C70154E0B695A7959795879509
:102430005A95D1F788AF99AFAAAFBBAF0C941509E5
:10244000D801C70124E0B695A795979587952A9559
:10245000D1F728968CAF9DAFAEAFBFAF28970C9445
:10246000BA088601750184E016950795F794E794FC
:102470008A95D1F7A896ECAEFDAE0EAF1FAFA89728
:102480000C94180AD601C501E4E0B695A795979576
:102490008795EA95D1F7A4968CAF9DAFAEAFBFAF4D
:1024A000A4970C94370AEF961FADEF97811708F0A9
:1024B000ECC0912F981B923010F40C945707EF96B4
:1024C0008FAFEF970C945707C601B501F3E09695CF
:1024D000879577956795FA95D1F7A4966CAF7DAF00
:1024E0008EAF9FAFA4970C94370AC801B70133E0B1
:1024F00096958795779567953A95D1F76CAF7DAFAF
:102500008EAF9FAF0C94F708D601C50123E0B695B6
:10251000A795979587952A95D1F7A8968CAF9DAFEB
:10252000AEAFBFAFA8970C94180AC801B70133E04B
:1025300096958795779567953A95D1F728966CAFDC
:102540007DAF8EAF9FAF28970C94BA08B601A50156
:1025500033E076956795579547953A95D1F7A096CC
:102560004CAF5DAF6EAF7FAFA0970C94550AC8011A
:10257000B701E3E09695879577956795EA95D1F74A
:1025800068AF79AF8AAF9BAF0C941509C801B7014A
:1025900033E096958795779567953A95D1F7249688
:1025A0006CAF7DAF8EAF9FAF24970C94DA083701E4
:1025B000480123E096948794779467942A95D1F7FD
:1025C0000C943009B601A50113E0769567955795EF
:1025D00047951A95D1F76C964CAF5DAF6EAF7FAF54
:1025E0006C970C94730AB801A701B3E076956795D0
:1025F00057954795BA95D1F760964CAF5DAF6EAFE2
:102600007FAF60970C947A08B601A50183E07695B8
:102610006795579547958A95D1F764964CAF5DAF0E
:102620006EAF7FAF64970C94AF0AC801B70133E077
:1026300096958795779567953A95D1F72C966CAFD7
:102640007DAF8EAF9FAF2C970C949A081501260191
:10265000A3E05694479437942794AA95D1F70C9405
:10266000C90AB601A501E3E07695679557954795A8
:10267000EA95D1F768964CAF5DAF6EAF7FAF6897C4
:102680000C94910A982F9F1B0DCD982F911B13CF5F
:10269000982F941B0DCB1F932F93222710E2660FC8
:1026A000771F881F991F221F10F0241710F0241B7A
:1026B00061601A95A1F72F911F910895629FD00133
:1026C000739FF001829FE00DF11D649FE00DF11DED
:1026D000929FF00D839FF00D749FF00D659FF00D9C
:1026E0009927729FB00DE11DF91F639FB00DE11D89
:0E26F000F91FBD01CF0111240895F894FFCF0A
:1026FE00FFFEFDFBF7EFDFBF7F3F9FCFE7F3F9FC58
:10270E00FAF5EBD7AF5F6FB7DBEDF6EEDDBB777BA0
:10271E00BDDEBE7D7E3E5E6E767A7CBCBAB6AE9E69
:10272E009DADB5B9D9D5CDCBD3E3C7E3F1F81F8FA6
:10273E00D3E9F4ECB367DCF0E8D8B878746C5C3CA1
:10274E003A362E1E1D1B170F1B3363C3C6CC666392
:10275E00C6C3C5C9D1D2D46A352D5AB4AC562B4B8B
:10276E0096A653939555AA55AA55AA55AA55AA5554
:00000001FF
